{
	"calc.sol": {
		"Calc": {
			"abi": [
				{
					"constant": true,
					"inputs": [],
					"name": "value",
					"outputs": [
						{
							"name": "",
							"type": "uint256"
						}
					],
					"payable": false,
					"stateMutability": "view",
					"type": "function"
				},
				{
					"constant": false,
					"inputs": [
						{
							"name": "_value3",
							"type": "uint256"
						},
						{
							"name": "_value4",
							"type": "uint256"
						}
					],
					"name": "deductions",
					"outputs": [],
					"payable": false,
					"stateMutability": "nonpayable",
					"type": "function"
				},
				{
					"constant": true,
					"inputs": [],
					"name": "value2",
					"outputs": [
						{
							"name": "",
							"type": "uint256"
						}
					],
					"payable": false,
					"stateMutability": "view",
					"type": "function"
				},
				{
					"constant": false,
					"inputs": [
						{
							"name": "_value1",
							"type": "uint256"
						},
						{
							"name": "_value2",
							"type": "uint256"
						}
					],
					"name": "add",
					"outputs": [],
					"payable": false,
					"stateMutability": "nonpayable",
					"type": "function"
				}
			],
			"devdoc": {
				"methods": {}
			},
			"evm": {
				"assembly": "    /* \"calc.sol\":54:365  contract Calc {\r... */\n  mstore(0x40, 0x80)\n  callvalue\n    /* \"--CODEGEN--\":8:17   */\n  dup1\n    /* \"--CODEGEN--\":5:7   */\n  iszero\n  tag_1\n  jumpi\n    /* \"--CODEGEN--\":30:31   */\n  0x0\n    /* \"--CODEGEN--\":27:28   */\n  dup1\n    /* \"--CODEGEN--\":20:32   */\n  revert\n    /* \"--CODEGEN--\":5:7   */\ntag_1:\n    /* \"calc.sol\":54:365  contract Calc {\r... */\n  pop\n  dataSize(sub_0)\n  dup1\n  dataOffset(sub_0)\n  0x0\n  codecopy\n  0x0\n  return\nstop\n\nsub_0: assembly {\n        /* \"calc.sol\":54:365  contract Calc {\r... */\n      mstore(0x40, 0x80)\n      jumpi(tag_1, lt(calldatasize, 0x4))\n      calldataload(0x0)\n      0x100000000000000000000000000000000000000000000000000000000\n      swap1\n      div\n      0xffffffff\n      and\n      dup1\n      0x3fa4f245\n      eq\n      tag_2\n      jumpi\n      dup1\n      0x53286946\n      eq\n      tag_3\n      jumpi\n      dup1\n      0x5d33a27f\n      eq\n      tag_4\n      jumpi\n      dup1\n      0x771602f7\n      eq\n      tag_5\n      jumpi\n    tag_1:\n      0x0\n      dup1\n      revert\n        /* \"calc.sol\":75:95  uint256 public value */\n    tag_2:\n      callvalue\n        /* \"--CODEGEN--\":8:17   */\n      dup1\n        /* \"--CODEGEN--\":5:7   */\n      iszero\n      tag_6\n      jumpi\n        /* \"--CODEGEN--\":30:31   */\n      0x0\n        /* \"--CODEGEN--\":27:28   */\n      dup1\n        /* \"--CODEGEN--\":20:32   */\n      revert\n        /* \"--CODEGEN--\":5:7   */\n    tag_6:\n        /* \"calc.sol\":75:95  uint256 public value */\n      pop\n      tag_7\n      jump(tag_8)\n    tag_7:\n      mload(0x40)\n      dup1\n      dup3\n      dup2\n      mstore\n      0x20\n      add\n      swap2\n      pop\n      pop\n      mload(0x40)\n      dup1\n      swap2\n      sub\n      swap1\n      return\n        /* \"calc.sol\":249:362  function deductions(uint _value3, uint _value4) public {\r... */\n    tag_3:\n      callvalue\n        /* \"--CODEGEN--\":8:17   */\n      dup1\n        /* \"--CODEGEN--\":5:7   */\n      iszero\n      tag_9\n      jumpi\n        /* \"--CODEGEN--\":30:31   */\n      0x0\n        /* \"--CODEGEN--\":27:28   */\n      dup1\n        /* \"--CODEGEN--\":20:32   */\n      revert\n        /* \"--CODEGEN--\":5:7   */\n    tag_9:\n        /* \"calc.sol\":249:362  function deductions(uint _value3, uint _value4) public {\r... */\n      pop\n      tag_10\n      0x4\n      dup1\n      calldatasize\n      sub\n      dup2\n      add\n      swap1\n      dup1\n      dup1\n      calldataload\n      swap1\n      0x20\n      add\n      swap1\n      swap3\n      swap2\n      swap1\n      dup1\n      calldataload\n      swap1\n      0x20\n      add\n      swap1\n      swap3\n      swap2\n      swap1\n      pop\n      pop\n      pop\n      jump(tag_11)\n    tag_10:\n      stop\n        /* \"calc.sol\":102:123  uint256 public value2 */\n    tag_4:\n      callvalue\n        /* \"--CODEGEN--\":8:17   */\n      dup1\n        /* \"--CODEGEN--\":5:7   */\n      iszero\n      tag_12\n      jumpi\n        /* \"--CODEGEN--\":30:31   */\n      0x0\n        /* \"--CODEGEN--\":27:28   */\n      dup1\n        /* \"--CODEGEN--\":20:32   */\n      revert\n        /* \"--CODEGEN--\":5:7   */\n    tag_12:\n        /* \"calc.sol\":102:123  uint256 public value2 */\n      pop\n      tag_13\n      jump(tag_14)\n    tag_13:\n      mload(0x40)\n      dup1\n      dup3\n      dup2\n      mstore\n      0x20\n      add\n      swap2\n      pop\n      pop\n      mload(0x40)\n      dup1\n      swap2\n      sub\n      swap1\n      return\n        /* \"calc.sol\":136:241  function add(uint _value1, uint _value2) public {\r... */\n    tag_5:\n      callvalue\n        /* \"--CODEGEN--\":8:17   */\n      dup1\n        /* \"--CODEGEN--\":5:7   */\n      iszero\n      tag_15\n      jumpi\n        /* \"--CODEGEN--\":30:31   */\n      0x0\n        /* \"--CODEGEN--\":27:28   */\n      dup1\n        /* \"--CODEGEN--\":20:32   */\n      revert\n        /* \"--CODEGEN--\":5:7   */\n    tag_15:\n        /* \"calc.sol\":136:241  function add(uint _value1, uint _value2) public {\r... */\n      pop\n      tag_16\n      0x4\n      dup1\n      calldatasize\n      sub\n      dup2\n      add\n      swap1\n      dup1\n      dup1\n      calldataload\n      swap1\n      0x20\n      add\n      swap1\n      swap3\n      swap2\n      swap1\n      dup1\n      calldataload\n      swap1\n      0x20\n      add\n      swap1\n      swap3\n      swap2\n      swap1\n      pop\n      pop\n      pop\n      jump(tag_17)\n    tag_16:\n      stop\n        /* \"calc.sol\":75:95  uint256 public value */\n    tag_8:\n      sload(0x0)\n      dup2\n      jump\t// out\n        /* \"calc.sol\":249:362  function deductions(uint _value3, uint _value4) public {\r... */\n    tag_11:\n        /* \"calc.sol\":324:354  SafeMath.sub(_value3, _value4) */\n      tag_19\n        /* \"calc.sol\":337:344  _value3 */\n      dup3\n        /* \"calc.sol\":346:353  _value4 */\n      dup3\n        /* \"calc.sol\":324:336  SafeMath.sub */\n      tag_20\n        /* \"calc.sol\":324:354  SafeMath.sub(_value3, _value4) */\n      jump\t// in\n    tag_19:\n        /* \"calc.sol\":315:321  value2 */\n      0x1\n        /* \"calc.sol\":315:354  value2 = SafeMath.sub(_value3, _value4) */\n      dup2\n      swap1\n      sstore\n      pop\n        /* \"calc.sol\":249:362  function deductions(uint _value3, uint _value4) public {\r... */\n      pop\n      pop\n      jump\t// out\n        /* \"calc.sol\":102:123  uint256 public value2 */\n    tag_14:\n      sload(0x1)\n      dup2\n      jump\t// out\n        /* \"calc.sol\":136:241  function add(uint _value1, uint _value2) public {\r... */\n    tag_17:\n        /* \"calc.sol\":203:233  SafeMath.add(_value1, _value2) */\n      tag_22\n        /* \"calc.sol\":216:223  _value1 */\n      dup3\n        /* \"calc.sol\":225:232  _value2 */\n      dup3\n        /* \"calc.sol\":203:215  SafeMath.add */\n      tag_23\n        /* \"calc.sol\":203:233  SafeMath.add(_value1, _value2) */\n      jump\t// in\n    tag_22:\n        /* \"calc.sol\":195:200  value */\n      0x0\n        /* \"calc.sol\":195:233  value = SafeMath.add(_value1, _value2) */\n      dup2\n      swap1\n      sstore\n      pop\n        /* \"calc.sol\":136:241  function add(uint _value1, uint _value2) public {\r... */\n      pop\n      pop\n      jump\t// out\n        /* \"SafeMath.sol\":1095:1232  function sub(uint256 _a, uint256 _b) internal pure returns (uint256) {... */\n    tag_20:\n        /* \"SafeMath.sol\":1155:1162  uint256 */\n      0x0\n        /* \"SafeMath.sol\":1193:1202  uint256 c */\n      dup1\n        /* \"SafeMath.sol\":1184:1186  _a */\n      dup4\n        /* \"SafeMath.sol\":1178:1180  _b */\n      dup4\n        /* \"SafeMath.sol\":1178:1186  _b <= _a */\n      gt\n      iszero\n        /* \"SafeMath.sol\":1170:1187  require(_b <= _a) */\n      iszero\n      iszero\n      tag_25\n      jumpi\n      0x0\n      dup1\n      revert\n    tag_25:\n        /* \"SafeMath.sol\":1210:1212  _b */\n      dup3\n        /* \"SafeMath.sol\":1205:1207  _a */\n      dup5\n        /* \"SafeMath.sol\":1205:1212  _a - _b */\n      sub\n        /* \"SafeMath.sol\":1193:1212  uint256 c = _a - _b */\n      swap1\n      pop\n        /* \"SafeMath.sol\":1226:1227  c */\n      dup1\n        /* \"SafeMath.sol\":1219:1227  return c */\n      swap2\n      pop\n        /* \"SafeMath.sol\":1095:1232  function sub(uint256 _a, uint256 _b) internal pure returns (uint256) {... */\n      pop\n      swap3\n      swap2\n      pop\n      pop\n      jump\t// out\n        /* \"SafeMath.sol\":1295:1431  function add(uint256 _a, uint256 _b) internal pure returns (uint256) {... */\n    tag_23:\n        /* \"SafeMath.sol\":1355:1362  uint256 */\n      0x0\n        /* \"SafeMath.sol\":1370:1379  uint256 c */\n      dup1\n        /* \"SafeMath.sol\":1387:1389  _b */\n      dup3\n        /* \"SafeMath.sol\":1382:1384  _a */\n      dup5\n        /* \"SafeMath.sol\":1382:1389  _a + _b */\n      add\n        /* \"SafeMath.sol\":1370:1389  uint256 c = _a + _b */\n      swap1\n      pop\n        /* \"SafeMath.sol\":1408:1410  _a */\n      dup4\n        /* \"SafeMath.sol\":1403:1404  c */\n      dup2\n        /* \"SafeMath.sol\":1403:1410  c >= _a */\n      lt\n      iszero\n        /* \"SafeMath.sol\":1395:1411  require(c >= _a) */\n      iszero\n      iszero\n      tag_27\n      jumpi\n      0x0\n      dup1\n      revert\n    tag_27:\n        /* \"SafeMath.sol\":1425:1426  c */\n      dup1\n        /* \"SafeMath.sol\":1418:1426  return c */\n      swap2\n      pop\n        /* \"SafeMath.sol\":1295:1431  function add(uint256 _a, uint256 _b) internal pure returns (uint256) {... */\n      pop\n      swap3\n      swap2\n      pop\n      pop\n      jump\t// out\n\n    auxdata: 0xa165627a7a7230582000f235358303f9eef5bcf5ed8b3c5f05f6de2ae85cc14a43e581b7baf9e5476d0029\n}\n",
				"bytecode": {
					"linkReferences": {},
					"object": "608060405234801561001057600080fd5b506101cd806100206000396000f300608060405260043610610062576000357c0100000000000000000000000000000000000000000000000000000000900463ffffffff1680633fa4f2451461006757806353286946146100925780635d33a27f146100c9578063771602f7146100f4575b600080fd5b34801561007357600080fd5b5061007c61012b565b6040518082815260200191505060405180910390f35b34801561009e57600080fd5b506100c76004803603810190808035906020019092919080359060200190929190505050610131565b005b3480156100d557600080fd5b506100de610145565b6040518082815260200191505060405180910390f35b34801561010057600080fd5b50610129600480360381019080803590602001909291908035906020019092919050505061014b565b005b60005481565b61013b828261015f565b6001819055505050565b60015481565b6101558282610180565b6000819055505050565b60008083831115151561017157600080fd5b82840390508091505092915050565b600080828401905083811015151561019757600080fd5b80915050929150505600a165627a7a7230582000f235358303f9eef5bcf5ed8b3c5f05f6de2ae85cc14a43e581b7baf9e5476d0029",
					"opcodes": "PUSH1 0x80 PUSH1 0x40 MSTORE CALLVALUE DUP1 ISZERO PUSH2 0x10 JUMPI PUSH1 0x0 DUP1 REVERT JUMPDEST POP PUSH2 0x1CD DUP1 PUSH2 0x20 PUSH1 0x0 CODECOPY PUSH1 0x0 RETURN STOP PUSH1 0x80 PUSH1 0x40 MSTORE PUSH1 0x4 CALLDATASIZE LT PUSH2 0x62 JUMPI PUSH1 0x0 CALLDATALOAD PUSH29 0x100000000000000000000000000000000000000000000000000000000 SWAP1 DIV PUSH4 0xFFFFFFFF AND DUP1 PUSH4 0x3FA4F245 EQ PUSH2 0x67 JUMPI DUP1 PUSH4 0x53286946 EQ PUSH2 0x92 JUMPI DUP1 PUSH4 0x5D33A27F EQ PUSH2 0xC9 JUMPI DUP1 PUSH4 0x771602F7 EQ PUSH2 0xF4 JUMPI JUMPDEST PUSH1 0x0 DUP1 REVERT JUMPDEST CALLVALUE DUP1 ISZERO PUSH2 0x73 JUMPI PUSH1 0x0 DUP1 REVERT JUMPDEST POP PUSH2 0x7C PUSH2 0x12B JUMP JUMPDEST PUSH1 0x40 MLOAD DUP1 DUP3 DUP2 MSTORE PUSH1 0x20 ADD SWAP2 POP POP PUSH1 0x40 MLOAD DUP1 SWAP2 SUB SWAP1 RETURN JUMPDEST CALLVALUE DUP1 ISZERO PUSH2 0x9E JUMPI PUSH1 0x0 DUP1 REVERT JUMPDEST POP PUSH2 0xC7 PUSH1 0x4 DUP1 CALLDATASIZE SUB DUP2 ADD SWAP1 DUP1 DUP1 CALLDATALOAD SWAP1 PUSH1 0x20 ADD SWAP1 SWAP3 SWAP2 SWAP1 DUP1 CALLDATALOAD SWAP1 PUSH1 0x20 ADD SWAP1 SWAP3 SWAP2 SWAP1 POP POP POP PUSH2 0x131 JUMP JUMPDEST STOP JUMPDEST CALLVALUE DUP1 ISZERO PUSH2 0xD5 JUMPI PUSH1 0x0 DUP1 REVERT JUMPDEST POP PUSH2 0xDE PUSH2 0x145 JUMP JUMPDEST PUSH1 0x40 MLOAD DUP1 DUP3 DUP2 MSTORE PUSH1 0x20 ADD SWAP2 POP POP PUSH1 0x40 MLOAD DUP1 SWAP2 SUB SWAP1 RETURN JUMPDEST CALLVALUE DUP1 ISZERO PUSH2 0x100 JUMPI PUSH1 0x0 DUP1 REVERT JUMPDEST POP PUSH2 0x129 PUSH1 0x4 DUP1 CALLDATASIZE SUB DUP2 ADD SWAP1 DUP1 DUP1 CALLDATALOAD SWAP1 PUSH1 0x20 ADD SWAP1 SWAP3 SWAP2 SWAP1 DUP1 CALLDATALOAD SWAP1 PUSH1 0x20 ADD SWAP1 SWAP3 SWAP2 SWAP1 POP POP POP PUSH2 0x14B JUMP JUMPDEST STOP JUMPDEST PUSH1 0x0 SLOAD DUP2 JUMP JUMPDEST PUSH2 0x13B DUP3 DUP3 PUSH2 0x15F JUMP JUMPDEST PUSH1 0x1 DUP2 SWAP1 SSTORE POP POP POP JUMP JUMPDEST PUSH1 0x1 SLOAD DUP2 JUMP JUMPDEST PUSH2 0x155 DUP3 DUP3 PUSH2 0x180 JUMP JUMPDEST PUSH1 0x0 DUP2 SWAP1 SSTORE POP POP POP JUMP JUMPDEST PUSH1 0x0 DUP1 DUP4 DUP4 GT ISZERO ISZERO ISZERO PUSH2 0x171 JUMPI PUSH1 0x0 DUP1 REVERT JUMPDEST DUP3 DUP5 SUB SWAP1 POP DUP1 SWAP2 POP POP SWAP3 SWAP2 POP POP JUMP JUMPDEST PUSH1 0x0 DUP1 DUP3 DUP5 ADD SWAP1 POP DUP4 DUP2 LT ISZERO ISZERO ISZERO PUSH2 0x197 JUMPI PUSH1 0x0 DUP1 REVERT JUMPDEST DUP1 SWAP2 POP POP SWAP3 SWAP2 POP POP JUMP STOP LOG1 PUSH6 0x627A7A723058 KECCAK256 STOP CALLCODE CALLDATALOAD CALLDATALOAD DUP4 SUB 0xf9 0xee 0xf5 0xbc 0xf5 0xed DUP12 EXTCODECOPY 0x5f SDIV 0xf6 0xde 0x2a 0xe8 0x5c 0xc1 0x4a NUMBER 0xe5 DUP2 0xb7 0xba 0xf9 0xe5 0x47 PUSH14 0x29000000000000000000000000 "
				},
				"gasEstimates": {
					"creation": {
						"codeDepositCost": "92200",
						"executionCost": "141",
						"totalCost": "92341"
					},
					"external": {
						"add(uint256,uint256)": "20399",
						"deductions(uint256,uint256)": "20355",
						"value()": "394",
						"value2()": "438"
					}
				},
				"methodIdentifiers": {
					"add(uint256,uint256)": "771602f7",
					"deductions(uint256,uint256)": "53286946",
					"value()": "3fa4f245",
					"value2()": "5d33a27f"
				}
			},
			"userdoc": {
				"methods": {}
			}
		}
	}
}