{
	"Counter.sol": {
		"Counter": {
			"abi": [
				{
					"constant": true,
					"inputs": [],
					"name": "getCount",
					"outputs": [
						{
							"name": "",
							"type": "uint256"
						}
					],
					"payable": false,
					"stateMutability": "view",
					"type": "function"
				},
				{
					"constant": false,
					"inputs": [],
					"name": "increment",
					"outputs": [],
					"payable": false,
					"stateMutability": "nonpayable",
					"type": "function"
				},
				{
					"inputs": [],
					"payable": false,
					"stateMutability": "nonpayable",
					"type": "constructor"
				}
			],
			"devdoc": {
				"methods": {}
			},
			"evm": {
				"assembly": "    /* \"Counter.sol\":28:486  contract Counter {\r... */\n  mstore(0x40, 0x80)\n    /* \"Counter.sol\":68:69  0 */\n  0x0\n    /* \"Counter.sol\":55:69  uint count = 0 */\n  dup1\n  sstore\n    /* \"Counter.sol\":130:187  constructor() public {\r... */\n  callvalue\n    /* \"--CODEGEN--\":8:17   */\n  dup1\n    /* \"--CODEGEN--\":5:7   */\n  iszero\n  tag_1\n  jumpi\n    /* \"--CODEGEN--\":30:31   */\n  0x0\n    /* \"--CODEGEN--\":27:28   */\n  dup1\n    /* \"--CODEGEN--\":20:32   */\n  revert\n    /* \"--CODEGEN--\":5:7   */\ntag_1:\n    /* \"Counter.sol\":130:187  constructor() public {\r... */\n  pop\n    /* \"Counter.sol\":169:179  msg.sender */\n  caller\n    /* \"Counter.sol\":161:166  owner */\n  0x1\n  0x0\n    /* \"Counter.sol\":161:179  owner = msg.sender */\n  0x100\n  exp\n  dup2\n  sload\n  dup2\n  0xffffffffffffffffffffffffffffffffffffffff\n  mul\n  not\n  and\n  swap1\n  dup4\n  0xffffffffffffffffffffffffffffffffffffffff\n  and\n  mul\n  or\n  swap1\n  sstore\n  pop\n    /* \"Counter.sol\":28:486  contract Counter {\r... */\n  dataSize(sub_0)\n  dup1\n  dataOffset(sub_0)\n  0x0\n  codecopy\n  0x0\n  return\nstop\n\nsub_0: assembly {\n        /* \"Counter.sol\":28:486  contract Counter {\r... */\n      mstore(0x40, 0x80)\n      jumpi(tag_1, lt(calldatasize, 0x4))\n      calldataload(0x0)\n      0x100000000000000000000000000000000000000000000000000000000\n      swap1\n      div\n      0xffffffff\n      and\n      dup1\n      0xa87d942c\n      eq\n      tag_2\n      jumpi\n      dup1\n      0xd09de08a\n      eq\n      tag_3\n      jumpi\n    tag_1:\n      0x0\n      dup1\n      revert\n        /* \"Counter.sol\":402:483  function getCount() public constant returns (uint) {\r... */\n    tag_2:\n      callvalue\n        /* \"--CODEGEN--\":8:17   */\n      dup1\n        /* \"--CODEGEN--\":5:7   */\n      iszero\n      tag_4\n      jumpi\n        /* \"--CODEGEN--\":30:31   */\n      0x0\n        /* \"--CODEGEN--\":27:28   */\n      dup1\n        /* \"--CODEGEN--\":20:32   */\n      revert\n        /* \"--CODEGEN--\":5:7   */\n    tag_4:\n        /* \"Counter.sol\":402:483  function getCount() public constant returns (uint) {\r... */\n      pop\n      tag_5\n      jump(tag_6)\n    tag_5:\n      mload(0x40)\n      dup1\n      dup3\n      dup2\n      mstore\n      0x20\n      add\n      swap2\n      pop\n      pop\n      mload(0x40)\n      dup1\n      swap2\n      sub\n      swap1\n      return\n        /* \"Counter.sol\":204:350  function increment() public {\r... */\n    tag_3:\n      callvalue\n        /* \"--CODEGEN--\":8:17   */\n      dup1\n        /* \"--CODEGEN--\":5:7   */\n      iszero\n      tag_7\n      jumpi\n        /* \"--CODEGEN--\":30:31   */\n      0x0\n        /* \"--CODEGEN--\":27:28   */\n      dup1\n        /* \"--CODEGEN--\":20:32   */\n      revert\n        /* \"--CODEGEN--\":5:7   */\n    tag_7:\n        /* \"Counter.sol\":204:350  function increment() public {\r... */\n      pop\n      tag_8\n      jump(tag_9)\n    tag_8:\n      stop\n        /* \"Counter.sol\":402:483  function getCount() public constant returns (uint) {\r... */\n    tag_6:\n        /* \"Counter.sol\":447:451  uint */\n      0x0\n        /* \"Counter.sol\":470:475  count */\n      dup1\n      sload\n        /* \"Counter.sol\":463:475  return count */\n      swap1\n      pop\n        /* \"Counter.sol\":402:483  function getCount() public constant returns (uint) {\r... */\n      swap1\n      jump\t// out\n        /* \"Counter.sol\":204:350  function increment() public {\r... */\n    tag_9:\n        /* \"Counter.sol\":255:265  msg.sender */\n      caller\n        /* \"Counter.sol\":246:265  owner == msg.sender */\n      0xffffffffffffffffffffffffffffffffffffffff\n      and\n        /* \"Counter.sol\":246:251  owner */\n      0x1\n      0x0\n      swap1\n      sload\n      swap1\n      0x100\n      exp\n      swap1\n      div\n      0xffffffffffffffffffffffffffffffffffffffff\n      and\n        /* \"Counter.sol\":246:265  owner == msg.sender */\n      0xffffffffffffffffffffffffffffffffffffffff\n      and\n      eq\n        /* \"Counter.sol\":242:343  if (owner == msg.sender) { // We check who calls the function\r... */\n      iszero\n      tag_12\n      jumpi\n        /* \"Counter.sol\":331:332  1 */\n      0x1\n        /* \"Counter.sol\":323:328  count */\n      sload(0x0)\n        /* \"Counter.sol\":323:332  count + 1 */\n      add\n        /* \"Counter.sol\":315:320  count */\n      0x0\n        /* \"Counter.sol\":315:332  count = count + 1 */\n      dup2\n      swap1\n      sstore\n      pop\n        /* \"Counter.sol\":242:343  if (owner == msg.sender) { // We check who calls the function\r... */\n    tag_12:\n        /* \"Counter.sol\":204:350  function increment() public {\r... */\n      jump\t// out\n\n    auxdata: 0xa165627a7a7230582090db4126e42e805826c64d9b1233b73a6d4a48b03f296e8142403d274fe3dce30029\n}\n",
				"bytecode": {
					"linkReferences": {},
					"object": "60806040526000805534801561001457600080fd5b5033600160006101000a81548173ffffffffffffffffffffffffffffffffffffffff021916908373ffffffffffffffffffffffffffffffffffffffff160217905550610123806100656000396000f3006080604052600436106049576000357c0100000000000000000000000000000000000000000000000000000000900463ffffffff168063a87d942c14604e578063d09de08a146076575b600080fd5b348015605957600080fd5b506060608a565b6040518082815260200191505060405180910390f35b348015608157600080fd5b5060886093565b005b60008054905090565b3373ffffffffffffffffffffffffffffffffffffffff16600160009054906101000a900473ffffffffffffffffffffffffffffffffffffffff1673ffffffffffffffffffffffffffffffffffffffff16141560f5576001600054016000819055505b5600a165627a7a7230582090db4126e42e805826c64d9b1233b73a6d4a48b03f296e8142403d274fe3dce30029",
					"opcodes": "PUSH1 0x80 PUSH1 0x40 MSTORE PUSH1 0x0 DUP1 SSTORE CALLVALUE DUP1 ISZERO PUSH2 0x14 JUMPI PUSH1 0x0 DUP1 REVERT JUMPDEST POP CALLER PUSH1 0x1 PUSH1 0x0 PUSH2 0x100 EXP DUP2 SLOAD DUP2 PUSH20 0xFFFFFFFFFFFFFFFFFFFFFFFFFFFFFFFFFFFFFFFF MUL NOT AND SWAP1 DUP4 PUSH20 0xFFFFFFFFFFFFFFFFFFFFFFFFFFFFFFFFFFFFFFFF AND MUL OR SWAP1 SSTORE POP PUSH2 0x123 DUP1 PUSH2 0x65 PUSH1 0x0 CODECOPY PUSH1 0x0 RETURN STOP PUSH1 0x80 PUSH1 0x40 MSTORE PUSH1 0x4 CALLDATASIZE LT PUSH1 0x49 JUMPI PUSH1 0x0 CALLDATALOAD PUSH29 0x100000000000000000000000000000000000000000000000000000000 SWAP1 DIV PUSH4 0xFFFFFFFF AND DUP1 PUSH4 0xA87D942C EQ PUSH1 0x4E JUMPI DUP1 PUSH4 0xD09DE08A EQ PUSH1 0x76 JUMPI JUMPDEST PUSH1 0x0 DUP1 REVERT JUMPDEST CALLVALUE DUP1 ISZERO PUSH1 0x59 JUMPI PUSH1 0x0 DUP1 REVERT JUMPDEST POP PUSH1 0x60 PUSH1 0x8A JUMP JUMPDEST PUSH1 0x40 MLOAD DUP1 DUP3 DUP2 MSTORE PUSH1 0x20 ADD SWAP2 POP POP PUSH1 0x40 MLOAD DUP1 SWAP2 SUB SWAP1 RETURN JUMPDEST CALLVALUE DUP1 ISZERO PUSH1 0x81 JUMPI PUSH1 0x0 DUP1 REVERT JUMPDEST POP PUSH1 0x88 PUSH1 0x93 JUMP JUMPDEST STOP JUMPDEST PUSH1 0x0 DUP1 SLOAD SWAP1 POP SWAP1 JUMP JUMPDEST CALLER PUSH20 0xFFFFFFFFFFFFFFFFFFFFFFFFFFFFFFFFFFFFFFFF AND PUSH1 0x1 PUSH1 0x0 SWAP1 SLOAD SWAP1 PUSH2 0x100 EXP SWAP1 DIV PUSH20 0xFFFFFFFFFFFFFFFFFFFFFFFFFFFFFFFFFFFFFFFF AND PUSH20 0xFFFFFFFFFFFFFFFFFFFFFFFFFFFFFFFFFFFFFFFF AND EQ ISZERO PUSH1 0xF5 JUMPI PUSH1 0x1 PUSH1 0x0 SLOAD ADD PUSH1 0x0 DUP2 SWAP1 SSTORE POP JUMPDEST JUMP STOP LOG1 PUSH6 0x627A7A723058 KECCAK256 SWAP1 0xdb COINBASE 0x26 0xe4 0x2e DUP1 PC 0x26 0xc6 0x4d SWAP12 SLT CALLER 0xb7 GASPRICE PUSH14 0x4A48B03F296E8142403D274FE3DC 0xe3 STOP 0x29 "
				},
				"gasEstimates": {
					"creation": {
						"codeDepositCost": "58200",
						"executionCost": "25383",
						"totalCost": "83583"
					},
					"external": {
						"getCount()": "402",
						"increment()": "20648"
					}
				},
				"methodIdentifiers": {
					"getCount()": "a87d942c",
					"increment()": "d09de08a"
				}
			},
			"userdoc": {
				"methods": {}
			}
		}
	}
}