{
	"CreditLetter.sol": {
		"CreditLetter": {
			"abi": [
				{
					"constant": false,
					"inputs": [
						{
							"name": "status",
							"type": "bool"
						},
						{
							"name": "timestamp",
							"type": "uint256"
						}
					],
					"name": "setStatusPaid",
					"outputs": [],
					"payable": false,
					"stateMutability": "nonpayable",
					"type": "function"
				},
				{
					"constant": false,
					"inputs": [
						{
							"name": "status",
							"type": "bool"
						},
						{
							"name": "timestamp",
							"type": "uint256"
						}
					],
					"name": "setStatusApproved",
					"outputs": [],
					"payable": false,
					"stateMutability": "nonpayable",
					"type": "function"
				},
				{
					"constant": true,
					"inputs": [],
					"name": "getInfo",
					"outputs": [
						{
							"name": "issuerVal",
							"type": "address"
						},
						{
							"name": "holderVal",
							"type": "address"
						},
						{
							"name": "acceptorVal",
							"type": "address"
						},
						{
							"name": "issuanceTimeVal",
							"type": "uint256"
						},
						{
							"name": "interestRateVal",
							"type": "uint256"
						},
						{
							"name": "creditVal",
							"type": "uint256"
						},
						{
							"name": "approved",
							"type": "bool"
						},
						{
							"name": "paid",
							"type": "bool"
						}
					],
					"payable": false,
					"stateMutability": "view",
					"type": "function"
				},
				{
					"constant": false,
					"inputs": [
						{
							"name": "to",
							"type": "address"
						},
						{
							"name": "timestamp",
							"type": "uint256"
						}
					],
					"name": "transfer",
					"outputs": [],
					"payable": false,
					"stateMutability": "nonpayable",
					"type": "function"
				},
				{
					"constant": false,
					"inputs": [
						{
							"name": "amount",
							"type": "uint256"
						},
						{
							"name": "timestamp",
							"type": "uint256"
						}
					],
					"name": "resetCreditAmount",
					"outputs": [],
					"payable": false,
					"stateMutability": "nonpayable",
					"type": "function"
				},
				{
					"inputs": [
						{
							"name": "issuerVal",
							"type": "address"
						},
						{
							"name": "holderVal",
							"type": "address"
						},
						{
							"name": "acceptorVal",
							"type": "address"
						},
						{
							"name": "issuanceTimeVal",
							"type": "uint256"
						},
						{
							"name": "interestRateVal",
							"type": "uint256"
						},
						{
							"name": "creditVal",
							"type": "uint256"
						}
					],
					"payable": false,
					"stateMutability": "nonpayable",
					"type": "constructor"
				},
				{
					"anonymous": false,
					"inputs": [
						{
							"indexed": false,
							"name": "id",
							"type": "uint256"
						},
						{
							"indexed": false,
							"name": "latestStatus",
							"type": "bool"
						},
						{
							"indexed": false,
							"name": "timestamp",
							"type": "uint256"
						}
					],
					"name": "StatusChanged",
					"type": "event"
				},
				{
					"anonymous": false,
					"inputs": [
						{
							"indexed": false,
							"name": "from",
							"type": "address"
						},
						{
							"indexed": false,
							"name": "to",
							"type": "address"
						},
						{
							"indexed": false,
							"name": "timestamp",
							"type": "uint256"
						}
					],
					"name": "HolderChanged",
					"type": "event"
				},
				{
					"anonymous": false,
					"inputs": [
						{
							"indexed": false,
							"name": "original",
							"type": "uint256"
						},
						{
							"indexed": false,
							"name": "amount",
							"type": "uint256"
						},
						{
							"indexed": false,
							"name": "timestamp",
							"type": "uint256"
						}
					],
					"name": "CreditChanged",
					"type": "event"
				}
			],
			"devdoc": {
				"methods": {}
			},
			"evm": {
				"assembly": "    /* \"CreditLetter.sol\":28:3614  contract CreditLetter {\r... */\n  mstore(0x40, 0x80)\n    /* \"CreditLetter.sol\":455:460  false */\n  0x0\n    /* \"CreditLetter.sol\":425:460  bool private statusApproved = false */\n  0x6\n  exp(0x100, 0x0)\n  dup2\n  sload\n  dup2\n  0xff\n  mul\n  not\n  and\n  swap1\n  dup4\n  iszero\n  iszero\n  mul\n  or\n  swap1\n  sstore\n  pop\n    /* \"CreditLetter.sol\":538:543  false */\n  0x0\n    /* \"CreditLetter.sol\":512:543  bool private statusPaid = false */\n  0x6\n  exp(0x100, 0x1)\n  dup2\n  sload\n  dup2\n  0xff\n  mul\n  not\n  and\n  swap1\n  dup4\n  iszero\n  iszero\n  mul\n  or\n  swap1\n  sstore\n  pop\n    /* \"CreditLetter.sol\":612:613  0 */\n  0x0\n    /* \"CreditLetter.sol\":575:613  uint256 private STATUS_APPROVED_ID = 0 */\n  0x7\n  sstore\n    /* \"CreditLetter.sol\":653:654  1 */\n  0x1\n    /* \"CreditLetter.sol\":620:654  uint256 private STATUS_PAID_ID = 1 */\n  0x8\n  sstore\n    /* \"CreditLetter.sol\":1019:1702  constructor (\r... */\n  callvalue\n    /* \"--CODEGEN--\":8:17   */\n  dup1\n    /* \"--CODEGEN--\":5:7   */\n  iszero\n  tag_1\n  jumpi\n    /* \"--CODEGEN--\":30:31   */\n  0x0\n    /* \"--CODEGEN--\":27:28   */\n  dup1\n    /* \"--CODEGEN--\":20:32   */\n  revert\n    /* \"--CODEGEN--\":5:7   */\ntag_1:\n    /* \"CreditLetter.sol\":1019:1702  constructor (\r... */\n  pop\n  mload(0x40)\n  0xc0\n  dup1\n  bytecodeSize\n  dup4\n  codecopy\n  dup2\n  add\n  dup1\n  0x40\n  mstore\n  dup2\n  add\n  swap1\n  dup1\n  dup1\n  mload\n  swap1\n  0x20\n  add\n  swap1\n  swap3\n  swap2\n  swap1\n  dup1\n  mload\n  swap1\n  0x20\n  add\n  swap1\n  swap3\n  swap2\n  swap1\n  dup1\n  mload\n  swap1\n  0x20\n  add\n  swap1\n  swap3\n  swap2\n  swap1\n  dup1\n  mload\n  swap1\n  0x20\n  add\n  swap1\n  swap3\n  swap2\n  swap1\n  dup1\n  mload\n  swap1\n  0x20\n  add\n  swap1\n  swap3\n  swap2\n  swap1\n  dup1\n  mload\n  swap1\n  0x20\n  add\n  swap1\n  swap3\n  swap2\n  swap1\n  pop\n  pop\n  pop\n    /* \"CreditLetter.sol\":1277:1286  issuerVal */\n  dup6\n    /* \"CreditLetter.sol\":1264:1286  tx.origin == issuerVal */\n  0xffffffffffffffffffffffffffffffffffffffff\n  and\n    /* \"CreditLetter.sol\":1264:1273  tx.origin */\n  origin\n    /* \"CreditLetter.sol\":1264:1286  tx.origin == issuerVal */\n  0xffffffffffffffffffffffffffffffffffffffff\n  and\n  eq\n    /* \"CreditLetter.sol\":1264:1314  tx.origin == issuerVal || tx.origin == acceptorVal */\n  dup1\n  tag_4\n  jumpi\n  pop\n    /* \"CreditLetter.sol\":1303:1314  acceptorVal */\n  dup4\n    /* \"CreditLetter.sol\":1290:1314  tx.origin == acceptorVal */\n  0xffffffffffffffffffffffffffffffffffffffff\n  and\n    /* \"CreditLetter.sol\":1290:1299  tx.origin */\n  origin\n    /* \"CreditLetter.sol\":1290:1314  tx.origin == acceptorVal */\n  0xffffffffffffffffffffffffffffffffffffffff\n  and\n  eq\n    /* \"CreditLetter.sol\":1264:1314  tx.origin == issuerVal || tx.origin == acceptorVal */\ntag_4:\n    /* \"CreditLetter.sol\":1255:1381  require (tx.origin == issuerVal || tx.origin == acceptorVal, \r... */\n  iszero\n  iszero\n  tag_5\n  jumpi\n  mload(0x40)\n  0x8c379a000000000000000000000000000000000000000000000000000000000\n  dup2\n  mstore\n  0x4\n  add\n  dup1\n  dup1\n  0x20\n  add\n  dup3\n  dup2\n  sub\n  dup3\n  mstore\n  0x34\n  dup2\n  mstore\n  0x20\n  add\n  dup1\n  0x4f6e6c7920697373756572206f72206163636570746f722063616e2069737375\n  dup2\n  mstore\n  0x20\n  add\n  0x65206869732f686572206f776e206c6574746572000000000000000000000000\n  dup2\n  mstore\n  pop\n  0x40\n  add\n  swap2\n  pop\n  pop\n  mload(0x40)\n  dup1\n  swap2\n  sub\n  swap1\n  revert\ntag_5:\n    /* \"CreditLetter.sol\":1401:1410  issuerVal */\n  dup6\n    /* \"CreditLetter.sol\":1392:1398  issuer */\n  0x0\n  dup1\n    /* \"CreditLetter.sol\":1392:1410  issuer = issuerVal */\n  0x100\n  exp\n  dup2\n  sload\n  dup2\n  0xffffffffffffffffffffffffffffffffffffffff\n  mul\n  not\n  and\n  swap1\n  dup4\n  0xffffffffffffffffffffffffffffffffffffffff\n  and\n  mul\n  or\n  swap1\n  sstore\n  pop\n    /* \"CreditLetter.sol\":1430:1439  holderVal */\n  dup5\n    /* \"CreditLetter.sol\":1421:1427  holder */\n  0x1\n  0x0\n    /* \"CreditLetter.sol\":1421:1439  holder = holderVal */\n  0x100\n  exp\n  dup2\n  sload\n  dup2\n  0xffffffffffffffffffffffffffffffffffffffff\n  mul\n  not\n  and\n  swap1\n  dup4\n  0xffffffffffffffffffffffffffffffffffffffff\n  and\n  mul\n  or\n  swap1\n  sstore\n  pop\n    /* \"CreditLetter.sol\":1461:1472  acceptorVal */\n  dup4\n    /* \"CreditLetter.sol\":1450:1458  acceptor */\n  0x2\n  0x0\n    /* \"CreditLetter.sol\":1450:1472  acceptor = acceptorVal */\n  0x100\n  exp\n  dup2\n  sload\n  dup2\n  0xffffffffffffffffffffffffffffffffffffffff\n  mul\n  not\n  and\n  swap1\n  dup4\n  0xffffffffffffffffffffffffffffffffffffffff\n  and\n  mul\n  or\n  swap1\n  sstore\n  pop\n    /* \"CreditLetter.sol\":1498:1513  issuanceTimeVal */\n  dup3\n    /* \"CreditLetter.sol\":1483:1495  issuanceTime */\n  0x3\n    /* \"CreditLetter.sol\":1483:1513  issuanceTime = issuanceTimeVal */\n  dup2\n  swap1\n  sstore\n  pop\n    /* \"CreditLetter.sol\":1539:1554  interestRateVal */\n  dup2\n    /* \"CreditLetter.sol\":1524:1536  interestRate */\n  0x4\n    /* \"CreditLetter.sol\":1524:1554  interestRate = interestRateVal */\n  dup2\n  swap1\n  sstore\n  pop\n    /* \"CreditLetter.sol\":1574:1583  creditVal */\n  dup1\n    /* \"CreditLetter.sol\":1565:1571  credit */\n  0x5\n    /* \"CreditLetter.sol\":1565:1583  credit = creditVal */\n  dup2\n  swap1\n  sstore\n  pop\n    /* \"CreditLetter.sol\":1594:1613  holderChangeHistory */\n  0x9\n    /* \"CreditLetter.sol\":1619:1628  holderVal */\n  dup6\n    /* \"CreditLetter.sol\":1594:1629  holderChangeHistory.push(holderVal) */\n  swap1\n  dup1\n    /* \"--CODEGEN--\":39:40   */\n  0x1\n    /* \"--CODEGEN--\":33:36   */\n  dup2\n    /* \"--CODEGEN--\":27:37   */\n  sload\n    /* \"--CODEGEN--\":23:41   */\n  add\n    /* \"--CODEGEN--\":57:67   */\n  dup1\n    /* \"--CODEGEN--\":52:55   */\n  dup3\n    /* \"--CODEGEN--\":45:68   */\n  sstore\n    /* \"--CODEGEN--\":79:89   */\n  dup1\n    /* \"--CODEGEN--\":72:89   */\n  swap2\n  pop\n    /* \"--CODEGEN--\":0:93   */\n  pop\n    /* \"CreditLetter.sol\":1594:1629  holderChangeHistory.push(holderVal) */\n  swap1\n  0x1\n  dup3\n  sub\n  swap1\n  0x0\n  mstore\n  keccak256(0x0, 0x20)\n  add\n  0x0\n  swap1\n  swap2\n  swap3\n  swap1\n  swap2\n  swap1\n  swap2\n  0x100\n  exp\n  dup2\n  sload\n  dup2\n  0xffffffffffffffffffffffffffffffffffffffff\n  mul\n  not\n  and\n  swap1\n  dup4\n  0xffffffffffffffffffffffffffffffffffffffff\n  and\n  mul\n  or\n  swap1\n  sstore\n  pop\n  pop\n    /* \"CreditLetter.sol\":1648:1670  holderChangeTimestamps */\n  0xa\n    /* \"CreditLetter.sol\":1676:1691  issuanceTimeVal */\n  dup4\n    /* \"CreditLetter.sol\":1648:1692  holderChangeTimestamps.push(issuanceTimeVal) */\n  swap1\n  dup1\n    /* \"--CODEGEN--\":39:40   */\n  0x1\n    /* \"--CODEGEN--\":33:36   */\n  dup2\n    /* \"--CODEGEN--\":27:37   */\n  sload\n    /* \"--CODEGEN--\":23:41   */\n  add\n    /* \"--CODEGEN--\":57:67   */\n  dup1\n    /* \"--CODEGEN--\":52:55   */\n  dup3\n    /* \"--CODEGEN--\":45:68   */\n  sstore\n    /* \"--CODEGEN--\":79:89   */\n  dup1\n    /* \"--CODEGEN--\":72:89   */\n  swap2\n  pop\n    /* \"--CODEGEN--\":0:93   */\n  pop\n    /* \"CreditLetter.sol\":1648:1692  holderChangeTimestamps.push(issuanceTimeVal) */\n  swap1\n  0x1\n  dup3\n  sub\n  swap1\n  0x0\n  mstore\n  keccak256(0x0, 0x20)\n  add\n  0x0\n  swap1\n  swap2\n  swap3\n  swap1\n  swap2\n  swap1\n  swap2\n  pop\n  sstore\n  pop\n    /* \"CreditLetter.sol\":1019:1702  constructor (\r... */\n  pop\n  pop\n  pop\n  pop\n  pop\n  pop\n    /* \"CreditLetter.sol\":28:3614  contract CreditLetter {\r... */\n  dataSize(sub_0)\n  dup1\n  dataOffset(sub_0)\n  0x0\n  codecopy\n  0x0\n  return\nstop\n\nsub_0: assembly {\n        /* \"CreditLetter.sol\":28:3614  contract CreditLetter {\r... */\n      mstore(0x40, 0x80)\n      jumpi(tag_1, lt(calldatasize, 0x4))\n      calldataload(0x0)\n      0x100000000000000000000000000000000000000000000000000000000\n      swap1\n      div\n      0xffffffff\n      and\n      dup1\n      0x1c924280\n      eq\n      tag_2\n      jumpi\n      dup1\n      0x58007b86\n      eq\n      tag_3\n      jumpi\n      dup1\n      0x5a9b0b89\n      eq\n      tag_4\n      jumpi\n      dup1\n      0xa9059cbb\n      eq\n      tag_5\n      jumpi\n      dup1\n      0xbfe389ed\n      eq\n      tag_6\n      jumpi\n    tag_1:\n      0x0\n      dup1\n      revert\n        /* \"CreditLetter.sol\":2505:2829  function setStatusPaid(bool status, uint256 timestamp) public {\r... */\n    tag_2:\n      callvalue\n        /* \"--CODEGEN--\":8:17   */\n      dup1\n        /* \"--CODEGEN--\":5:7   */\n      iszero\n      tag_7\n      jumpi\n        /* \"--CODEGEN--\":30:31   */\n      0x0\n        /* \"--CODEGEN--\":27:28   */\n      dup1\n        /* \"--CODEGEN--\":20:32   */\n      revert\n        /* \"--CODEGEN--\":5:7   */\n    tag_7:\n        /* \"CreditLetter.sol\":2505:2829  function setStatusPaid(bool status, uint256 timestamp) public {\r... */\n      pop\n      tag_8\n      0x4\n      dup1\n      calldatasize\n      sub\n      dup2\n      add\n      swap1\n      dup1\n      dup1\n      calldataload\n      iszero\n      iszero\n      swap1\n      0x20\n      add\n      swap1\n      swap3\n      swap2\n      swap1\n      dup1\n      calldataload\n      swap1\n      0x20\n      add\n      swap1\n      swap3\n      swap2\n      swap1\n      pop\n      pop\n      pop\n      jump(tag_9)\n    tag_8:\n      stop\n        /* \"CreditLetter.sol\":2111:2497  function setStatusApproved(bool status, uint256 timestamp) public {\r... */\n    tag_3:\n      callvalue\n        /* \"--CODEGEN--\":8:17   */\n      dup1\n        /* \"--CODEGEN--\":5:7   */\n      iszero\n      tag_10\n      jumpi\n        /* \"--CODEGEN--\":30:31   */\n      0x0\n        /* \"--CODEGEN--\":27:28   */\n      dup1\n        /* \"--CODEGEN--\":20:32   */\n      revert\n        /* \"--CODEGEN--\":5:7   */\n    tag_10:\n        /* \"CreditLetter.sol\":2111:2497  function setStatusApproved(bool status, uint256 timestamp) public {\r... */\n      pop\n      tag_11\n      0x4\n      dup1\n      calldatasize\n      sub\n      dup2\n      add\n      swap1\n      dup1\n      dup1\n      calldataload\n      iszero\n      iszero\n      swap1\n      0x20\n      add\n      swap1\n      swap3\n      swap2\n      swap1\n      dup1\n      calldataload\n      swap1\n      0x20\n      add\n      swap1\n      swap3\n      swap2\n      swap1\n      pop\n      pop\n      pop\n      jump(tag_12)\n    tag_11:\n      stop\n        /* \"CreditLetter.sol\":1708:2103  function getInfo() public view returns (\r... */\n    tag_4:\n      callvalue\n        /* \"--CODEGEN--\":8:17   */\n      dup1\n        /* \"--CODEGEN--\":5:7   */\n      iszero\n      tag_13\n      jumpi\n        /* \"--CODEGEN--\":30:31   */\n      0x0\n        /* \"--CODEGEN--\":27:28   */\n      dup1\n        /* \"--CODEGEN--\":20:32   */\n      revert\n        /* \"--CODEGEN--\":5:7   */\n    tag_13:\n        /* \"CreditLetter.sol\":1708:2103  function getInfo() public view returns (\r... */\n      pop\n      tag_14\n      jump(tag_15)\n    tag_14:\n      mload(0x40)\n      dup1\n      dup10\n      0xffffffffffffffffffffffffffffffffffffffff\n      and\n      0xffffffffffffffffffffffffffffffffffffffff\n      and\n      dup2\n      mstore\n      0x20\n      add\n      dup9\n      0xffffffffffffffffffffffffffffffffffffffff\n      and\n      0xffffffffffffffffffffffffffffffffffffffff\n      and\n      dup2\n      mstore\n      0x20\n      add\n      dup8\n      0xffffffffffffffffffffffffffffffffffffffff\n      and\n      0xffffffffffffffffffffffffffffffffffffffff\n      and\n      dup2\n      mstore\n      0x20\n      add\n      dup7\n      dup2\n      mstore\n      0x20\n      add\n      dup6\n      dup2\n      mstore\n      0x20\n      add\n      dup5\n      dup2\n      mstore\n      0x20\n      add\n      dup4\n      iszero\n      iszero\n      iszero\n      iszero\n      dup2\n      mstore\n      0x20\n      add\n      dup3\n      iszero\n      iszero\n      iszero\n      iszero\n      dup2\n      mstore\n      0x20\n      add\n      swap9\n      pop\n      pop\n      pop\n      pop\n      pop\n      pop\n      pop\n      pop\n      pop\n      mload(0x40)\n      dup1\n      swap2\n      sub\n      swap1\n      return\n        /* \"CreditLetter.sol\":2837:3282  function transfer(address to, uint256 timestamp) public {\r... */\n    tag_5:\n      callvalue\n        /* \"--CODEGEN--\":8:17   */\n      dup1\n        /* \"--CODEGEN--\":5:7   */\n      iszero\n      tag_16\n      jumpi\n        /* \"--CODEGEN--\":30:31   */\n      0x0\n        /* \"--CODEGEN--\":27:28   */\n      dup1\n        /* \"--CODEGEN--\":20:32   */\n      revert\n        /* \"--CODEGEN--\":5:7   */\n    tag_16:\n        /* \"CreditLetter.sol\":2837:3282  function transfer(address to, uint256 timestamp) public {\r... */\n      pop\n      tag_17\n      0x4\n      dup1\n      calldatasize\n      sub\n      dup2\n      add\n      swap1\n      dup1\n      dup1\n      calldataload\n      0xffffffffffffffffffffffffffffffffffffffff\n      and\n      swap1\n      0x20\n      add\n      swap1\n      swap3\n      swap2\n      swap1\n      dup1\n      calldataload\n      swap1\n      0x20\n      add\n      swap1\n      swap3\n      swap2\n      swap1\n      pop\n      pop\n      pop\n      jump(tag_18)\n    tag_17:\n      stop\n        /* \"CreditLetter.sol\":3296:3611  function resetCreditAmount(uint256 amount, uint256 timestamp) public {\r... */\n    tag_6:\n      callvalue\n        /* \"--CODEGEN--\":8:17   */\n      dup1\n        /* \"--CODEGEN--\":5:7   */\n      iszero\n      tag_19\n      jumpi\n        /* \"--CODEGEN--\":30:31   */\n      0x0\n        /* \"--CODEGEN--\":27:28   */\n      dup1\n        /* \"--CODEGEN--\":20:32   */\n      revert\n        /* \"--CODEGEN--\":5:7   */\n    tag_19:\n        /* \"CreditLetter.sol\":3296:3611  function resetCreditAmount(uint256 amount, uint256 timestamp) public {\r... */\n      pop\n      tag_20\n      0x4\n      dup1\n      calldatasize\n      sub\n      dup2\n      add\n      swap1\n      dup1\n      dup1\n      calldataload\n      swap1\n      0x20\n      add\n      swap1\n      swap3\n      swap2\n      swap1\n      dup1\n      calldataload\n      swap1\n      0x20\n      add\n      swap1\n      swap3\n      swap2\n      swap1\n      pop\n      pop\n      pop\n      jump(tag_21)\n    tag_20:\n      stop\n        /* \"CreditLetter.sol\":2505:2829  function setStatusPaid(bool status, uint256 timestamp) public {\r... */\n    tag_9:\n        /* \"CreditLetter.sol\":2599:2600  0 */\n      0x0\n        /* \"CreditLetter.sol\":2587:2596  timestamp */\n      dup2\n        /* \"CreditLetter.sol\":2587:2600  timestamp > 0 */\n      gt\n        /* \"CreditLetter.sol\":2578:2601  require (timestamp > 0) */\n      iszero\n      iszero\n      tag_23\n      jumpi\n      0x0\n      dup1\n      revert\n    tag_23:\n        /* \"CreditLetter.sol\":2693:2701  acceptor */\n      0x2\n      0x0\n      swap1\n      sload\n      swap1\n      0x100\n      exp\n      swap1\n      div\n      0xffffffffffffffffffffffffffffffffffffffff\n      and\n        /* \"CreditLetter.sol\":2679:2701  msg.sender == acceptor */\n      0xffffffffffffffffffffffffffffffffffffffff\n      and\n        /* \"CreditLetter.sol\":2679:2689  msg.sender */\n      caller\n        /* \"CreditLetter.sol\":2679:2701  msg.sender == acceptor */\n      0xffffffffffffffffffffffffffffffffffffffff\n      and\n      eq\n        /* \"CreditLetter.sol\":2670:2727  require (msg.sender == acceptor, \"Only acceptor can pay\") */\n      iszero\n      iszero\n      tag_24\n      jumpi\n      mload(0x40)\n      0x8c379a000000000000000000000000000000000000000000000000000000000\n      dup2\n      mstore\n      0x4\n      add\n      dup1\n      dup1\n      0x20\n      add\n      dup3\n      dup2\n      sub\n      dup3\n      mstore\n      0x15\n      dup2\n      mstore\n      0x20\n      add\n      dup1\n      0x4f6e6c79206163636570746f722063616e207061790000000000000000000000\n      dup2\n      mstore\n      pop\n      0x20\n      add\n      swap2\n      pop\n      pop\n      mload(0x40)\n      dup1\n      swap2\n      sub\n      swap1\n      revert\n    tag_24:\n        /* \"CreditLetter.sol\":2751:2757  status */\n      dup2\n        /* \"CreditLetter.sol\":2738:2748  statusPaid */\n      0x6\n      0x1\n        /* \"CreditLetter.sol\":2738:2757  statusPaid = status */\n      0x100\n      exp\n      dup2\n      sload\n      dup2\n      0xff\n      mul\n      not\n      and\n      swap1\n      dup4\n      iszero\n      iszero\n      mul\n      or\n      swap1\n      sstore\n      pop\n        /* \"CreditLetter.sol\":2773:2821  StatusChanged(STATUS_PAID_ID, status, timestamp) */\n      0x1ecf1b9cee605f7dc61806c2f40429418dbc06abbb7cfe58d1b5480f084af9a0\n        /* \"CreditLetter.sol\":2787:2801  STATUS_PAID_ID */\n      sload(0x8)\n        /* \"CreditLetter.sol\":2803:2809  status */\n      dup4\n        /* \"CreditLetter.sol\":2811:2820  timestamp */\n      dup4\n        /* \"CreditLetter.sol\":2773:2821  StatusChanged(STATUS_PAID_ID, status, timestamp) */\n      mload(0x40)\n      dup1\n      dup5\n      dup2\n      mstore\n      0x20\n      add\n      dup4\n      iszero\n      iszero\n      iszero\n      iszero\n      dup2\n      mstore\n      0x20\n      add\n      dup3\n      dup2\n      mstore\n      0x20\n      add\n      swap4\n      pop\n      pop\n      pop\n      pop\n      mload(0x40)\n      dup1\n      swap2\n      sub\n      swap1\n      log1\n        /* \"CreditLetter.sol\":2505:2829  function setStatusPaid(bool status, uint256 timestamp) public {\r... */\n      pop\n      pop\n      jump\t// out\n        /* \"CreditLetter.sol\":2111:2497  function setStatusApproved(bool status, uint256 timestamp) public {\r... */\n    tag_12:\n        /* \"CreditLetter.sol\":2209:2210  0 */\n      0x0\n        /* \"CreditLetter.sol\":2197:2206  timestamp */\n      dup2\n        /* \"CreditLetter.sol\":2197:2210  timestamp > 0 */\n      gt\n        /* \"CreditLetter.sol\":2188:2211  require (timestamp > 0) */\n      iszero\n      iszero\n      tag_26\n      jumpi\n      0x0\n      dup1\n      revert\n    tag_26:\n        /* \"CreditLetter.sol\":2315:2323  acceptor */\n      0x2\n      0x0\n      swap1\n      sload\n      swap1\n      0x100\n      exp\n      swap1\n      div\n      0xffffffffffffffffffffffffffffffffffffffff\n      and\n        /* \"CreditLetter.sol\":2301:2323  msg.sender == acceptor */\n      0xffffffffffffffffffffffffffffffffffffffff\n      and\n        /* \"CreditLetter.sol\":2301:2311  msg.sender */\n      caller\n        /* \"CreditLetter.sol\":2301:2323  msg.sender == acceptor */\n      0xffffffffffffffffffffffffffffffffffffffff\n      and\n      eq\n        /* \"CreditLetter.sol\":2301:2347  msg.sender == acceptor || msg.sender == issuer */\n      dup1\n      tag_27\n      jumpi\n      pop\n        /* \"CreditLetter.sol\":2341:2347  issuer */\n      0x0\n      dup1\n      swap1\n      sload\n      swap1\n      0x100\n      exp\n      swap1\n      div\n      0xffffffffffffffffffffffffffffffffffffffff\n      and\n        /* \"CreditLetter.sol\":2327:2347  msg.sender == issuer */\n      0xffffffffffffffffffffffffffffffffffffffff\n      and\n        /* \"CreditLetter.sol\":2327:2337  msg.sender */\n      caller\n        /* \"CreditLetter.sol\":2327:2347  msg.sender == issuer */\n      0xffffffffffffffffffffffffffffffffffffffff\n      and\n      eq\n        /* \"CreditLetter.sol\":2301:2347  msg.sender == acceptor || msg.sender == issuer */\n    tag_27:\n        /* \"CreditLetter.sol\":2292:2387  require (msg.sender == acceptor || msg.sender == issuer, \"Only acceptor or issuer can approve\") */\n      iszero\n      iszero\n      tag_28\n      jumpi\n      mload(0x40)\n      0x8c379a000000000000000000000000000000000000000000000000000000000\n      dup2\n      mstore\n      0x4\n      add\n      dup1\n      dup1\n      0x20\n      add\n      dup3\n      dup2\n      sub\n      dup3\n      mstore\n      0x23\n      dup2\n      mstore\n      0x20\n      add\n      dup1\n      0x4f6e6c79206163636570746f72206f72206973737565722063616e2061707072\n      dup2\n      mstore\n      0x20\n      add\n      0x6f76650000000000000000000000000000000000000000000000000000000000\n      dup2\n      mstore\n      pop\n      0x40\n      add\n      swap2\n      pop\n      pop\n      mload(0x40)\n      dup1\n      swap2\n      sub\n      swap1\n      revert\n    tag_28:\n        /* \"CreditLetter.sol\":2415:2421  status */\n      dup2\n        /* \"CreditLetter.sol\":2398:2412  statusApproved */\n      0x6\n      0x0\n        /* \"CreditLetter.sol\":2398:2421  statusApproved = status */\n      0x100\n      exp\n      dup2\n      sload\n      dup2\n      0xff\n      mul\n      not\n      and\n      swap1\n      dup4\n      iszero\n      iszero\n      mul\n      or\n      swap1\n      sstore\n      pop\n        /* \"CreditLetter.sol\":2437:2489  StatusChanged(STATUS_APPROVED_ID, status, timestamp) */\n      0x1ecf1b9cee605f7dc61806c2f40429418dbc06abbb7cfe58d1b5480f084af9a0\n        /* \"CreditLetter.sol\":2451:2469  STATUS_APPROVED_ID */\n      sload(0x7)\n        /* \"CreditLetter.sol\":2471:2477  status */\n      dup4\n        /* \"CreditLetter.sol\":2479:2488  timestamp */\n      dup4\n        /* \"CreditLetter.sol\":2437:2489  StatusChanged(STATUS_APPROVED_ID, status, timestamp) */\n      mload(0x40)\n      dup1\n      dup5\n      dup2\n      mstore\n      0x20\n      add\n      dup4\n      iszero\n      iszero\n      iszero\n      iszero\n      dup2\n      mstore\n      0x20\n      add\n      dup3\n      dup2\n      mstore\n      0x20\n      add\n      swap4\n      pop\n      pop\n      pop\n      pop\n      mload(0x40)\n      dup1\n      swap2\n      sub\n      swap1\n      log1\n        /* \"CreditLetter.sol\":2111:2497  function setStatusApproved(bool status, uint256 timestamp) public {\r... */\n      pop\n      pop\n      jump\t// out\n        /* \"CreditLetter.sol\":1708:2103  function getInfo() public view returns (\r... */\n    tag_15:\n        /* \"CreditLetter.sol\":1758:1775  address issuerVal */\n      0x0\n        /* \"CreditLetter.sol\":1786:1803  address holderVal */\n      dup1\n        /* \"CreditLetter.sol\":1814:1833  address acceptorVal */\n      0x0\n        /* \"CreditLetter.sol\":1844:1867  uint256 issuanceTimeVal */\n      dup1\n        /* \"CreditLetter.sol\":1878:1901  uint256 interestRateVal */\n      0x0\n        /* \"CreditLetter.sol\":1912:1929  uint256 creditVal */\n      dup1\n        /* \"CreditLetter.sol\":1940:1953  bool approved */\n      0x0\n        /* \"CreditLetter.sol\":1964:1973  bool paid */\n      dup1\n        /* \"CreditLetter.sol\":2006:2012  issuer */\n      0x0\n      dup1\n      swap1\n      sload\n      swap1\n      0x100\n      exp\n      swap1\n      div\n      0xffffffffffffffffffffffffffffffffffffffff\n      and\n        /* \"CreditLetter.sol\":2014:2020  holder */\n      0x1\n      0x0\n      swap1\n      sload\n      swap1\n      0x100\n      exp\n      swap1\n      div\n      0xffffffffffffffffffffffffffffffffffffffff\n      and\n        /* \"CreditLetter.sol\":2022:2030  acceptor */\n      0x2\n      0x0\n      swap1\n      sload\n      swap1\n      0x100\n      exp\n      swap1\n      div\n      0xffffffffffffffffffffffffffffffffffffffff\n      and\n        /* \"CreditLetter.sol\":2032:2044  issuanceTime */\n      sload(0x3)\n        /* \"CreditLetter.sol\":2046:2058  interestRate */\n      sload(0x4)\n        /* \"CreditLetter.sol\":2060:2066  credit */\n      sload(0x5)\n        /* \"CreditLetter.sol\":2068:2082  statusApproved */\n      0x6\n      0x0\n      swap1\n      sload\n      swap1\n      0x100\n      exp\n      swap1\n      div\n      0xff\n      and\n        /* \"CreditLetter.sol\":2084:2094  statusPaid */\n      0x6\n      0x1\n      swap1\n      sload\n      swap1\n      0x100\n      exp\n      swap1\n      div\n      0xff\n      and\n        /* \"CreditLetter.sol\":1998:2095  return (issuer, holder, acceptor, issuanceTime, interestRate, credit, statusApproved, statusPaid) */\n      swap8\n      pop\n      swap8\n      pop\n      swap8\n      pop\n      swap8\n      pop\n      swap8\n      pop\n      swap8\n      pop\n      swap8\n      pop\n      swap8\n      pop\n        /* \"CreditLetter.sol\":1708:2103  function getInfo() public view returns (\r... */\n      swap1\n      swap2\n      swap3\n      swap4\n      swap5\n      swap6\n      swap7\n      swap8\n      jump\t// out\n        /* \"CreditLetter.sol\":2837:3282  function transfer(address to, uint256 timestamp) public {\r... */\n    tag_18:\n        /* \"CreditLetter.sol\":2923:2925  to */\n      dup2\n        /* \"CreditLetter.sol\":2913:2925  holder != to */\n      0xffffffffffffffffffffffffffffffffffffffff\n      and\n        /* \"CreditLetter.sol\":2913:2919  holder */\n      0x1\n      0x0\n      swap1\n      sload\n      swap1\n      0x100\n      exp\n      swap1\n      div\n      0xffffffffffffffffffffffffffffffffffffffff\n      and\n        /* \"CreditLetter.sol\":2913:2925  holder != to */\n      0xffffffffffffffffffffffffffffffffffffffff\n      and\n      eq\n      iszero\n        /* \"CreditLetter.sol\":2904:2926  require (holder != to) */\n      iszero\n      iszero\n      tag_31\n      jumpi\n      0x0\n      dup1\n      revert\n    tag_31:\n        /* \"CreditLetter.sol\":2958:2959  0 */\n      0x0\n        /* \"CreditLetter.sol\":2946:2955  timestamp */\n      dup2\n        /* \"CreditLetter.sol\":2946:2959  timestamp > 0 */\n      gt\n        /* \"CreditLetter.sol\":2937:2960  require (timestamp > 0) */\n      iszero\n      iszero\n      tag_32\n      jumpi\n      0x0\n      dup1\n      revert\n    tag_32:\n        /* \"CreditLetter.sol\":3065:3071  holder */\n      0x1\n      0x0\n      swap1\n      sload\n      swap1\n      0x100\n      exp\n      swap1\n      div\n      0xffffffffffffffffffffffffffffffffffffffff\n      and\n        /* \"CreditLetter.sol\":3051:3071  msg.sender == holder */\n      0xffffffffffffffffffffffffffffffffffffffff\n      and\n        /* \"CreditLetter.sol\":3051:3061  msg.sender */\n      caller\n        /* \"CreditLetter.sol\":3051:3071  msg.sender == holder */\n      0xffffffffffffffffffffffffffffffffffffffff\n      and\n      eq\n        /* \"CreditLetter.sol\":3042:3100  require (msg.sender == holder, \"Only holder can transfer\") */\n      iszero\n      iszero\n      tag_33\n      jumpi\n      mload(0x40)\n      0x8c379a000000000000000000000000000000000000000000000000000000000\n      dup2\n      mstore\n      0x4\n      add\n      dup1\n      dup1\n      0x20\n      add\n      dup3\n      dup2\n      sub\n      dup3\n      mstore\n      0x18\n      dup2\n      mstore\n      0x20\n      add\n      dup1\n      0x4f6e6c7920686f6c6465722063616e207472616e736665720000000000000000\n      dup2\n      mstore\n      pop\n      0x20\n      add\n      swap2\n      pop\n      pop\n      mload(0x40)\n      dup1\n      swap2\n      sub\n      swap1\n      revert\n    tag_33:\n        /* \"CreditLetter.sol\":3120:3122  to */\n      dup2\n        /* \"CreditLetter.sol\":3111:3117  holder */\n      0x1\n      0x0\n        /* \"CreditLetter.sol\":3111:3122  holder = to */\n      0x100\n      exp\n      dup2\n      sload\n      dup2\n      0xffffffffffffffffffffffffffffffffffffffff\n      mul\n      not\n      and\n      swap1\n      dup4\n      0xffffffffffffffffffffffffffffffffffffffff\n      and\n      mul\n      or\n      swap1\n      sstore\n      pop\n        /* \"CreditLetter.sol\":3133:3152  holderChangeHistory */\n      0x9\n        /* \"CreditLetter.sol\":3158:3168  msg.sender */\n      caller\n        /* \"CreditLetter.sol\":3133:3169  holderChangeHistory.push(msg.sender) */\n      swap1\n      dup1\n        /* \"--CODEGEN--\":39:40   */\n      0x1\n        /* \"--CODEGEN--\":33:36   */\n      dup2\n        /* \"--CODEGEN--\":27:37   */\n      sload\n        /* \"--CODEGEN--\":23:41   */\n      add\n        /* \"--CODEGEN--\":57:67   */\n      dup1\n        /* \"--CODEGEN--\":52:55   */\n      dup3\n        /* \"--CODEGEN--\":45:68   */\n      sstore\n        /* \"--CODEGEN--\":79:89   */\n      dup1\n        /* \"--CODEGEN--\":72:89   */\n      swap2\n      pop\n        /* \"--CODEGEN--\":0:93   */\n      pop\n        /* \"CreditLetter.sol\":3133:3169  holderChangeHistory.push(msg.sender) */\n      swap1\n      0x1\n      dup3\n      sub\n      swap1\n      0x0\n      mstore\n      keccak256(0x0, 0x20)\n      add\n      0x0\n      swap1\n      swap2\n      swap3\n      swap1\n      swap2\n      swap1\n      swap2\n      0x100\n      exp\n      dup2\n      sload\n      dup2\n      0xffffffffffffffffffffffffffffffffffffffff\n      mul\n      not\n      and\n      swap1\n      dup4\n      0xffffffffffffffffffffffffffffffffffffffff\n      and\n      mul\n      or\n      swap1\n      sstore\n      pop\n      pop\n        /* \"CreditLetter.sol\":3180:3202  holderChangeTimestamps */\n      0xa\n        /* \"CreditLetter.sol\":3208:3217  timestamp */\n      dup2\n        /* \"CreditLetter.sol\":3180:3218  holderChangeTimestamps.push(timestamp) */\n      swap1\n      dup1\n        /* \"--CODEGEN--\":39:40   */\n      0x1\n        /* \"--CODEGEN--\":33:36   */\n      dup2\n        /* \"--CODEGEN--\":27:37   */\n      sload\n        /* \"--CODEGEN--\":23:41   */\n      add\n        /* \"--CODEGEN--\":57:67   */\n      dup1\n        /* \"--CODEGEN--\":52:55   */\n      dup3\n        /* \"--CODEGEN--\":45:68   */\n      sstore\n        /* \"--CODEGEN--\":79:89   */\n      dup1\n        /* \"--CODEGEN--\":72:89   */\n      swap2\n      pop\n        /* \"--CODEGEN--\":0:93   */\n      pop\n        /* \"CreditLetter.sol\":3180:3218  holderChangeTimestamps.push(timestamp) */\n      swap1\n      0x1\n      dup3\n      sub\n      swap1\n      0x0\n      mstore\n      keccak256(0x0, 0x20)\n      add\n      0x0\n      swap1\n      swap2\n      swap3\n      swap1\n      swap2\n      swap1\n      swap2\n      pop\n      sstore\n      pop\n        /* \"CreditLetter.sol\":3234:3274  HolderChanged(msg.sender, to, timestamp) */\n      0xb208f30897dd37bbda3db1da3cf917bce605c53cdab4f7be8eaac32c8082f10\n        /* \"CreditLetter.sol\":3248:3258  msg.sender */\n      caller\n        /* \"CreditLetter.sol\":3260:3262  to */\n      dup4\n        /* \"CreditLetter.sol\":3264:3273  timestamp */\n      dup4\n        /* \"CreditLetter.sol\":3234:3274  HolderChanged(msg.sender, to, timestamp) */\n      mload(0x40)\n      dup1\n      dup5\n      0xffffffffffffffffffffffffffffffffffffffff\n      and\n      0xffffffffffffffffffffffffffffffffffffffff\n      and\n      dup2\n      mstore\n      0x20\n      add\n      dup4\n      0xffffffffffffffffffffffffffffffffffffffff\n      and\n      0xffffffffffffffffffffffffffffffffffffffff\n      and\n      dup2\n      mstore\n      0x20\n      add\n      dup3\n      dup2\n      mstore\n      0x20\n      add\n      swap4\n      pop\n      pop\n      pop\n      pop\n      mload(0x40)\n      dup1\n      swap2\n      sub\n      swap1\n      log1\n        /* \"CreditLetter.sol\":2837:3282  function transfer(address to, uint256 timestamp) public {\r... */\n      pop\n      pop\n      jump\t// out\n        /* \"CreditLetter.sol\":3296:3611  function resetCreditAmount(uint256 amount, uint256 timestamp) public {\r... */\n    tag_21:\n        /* \"CreditLetter.sol\":3438:3444  issuer */\n      0x0\n      dup1\n      swap1\n      sload\n      swap1\n      0x100\n      exp\n      swap1\n      div\n      0xffffffffffffffffffffffffffffffffffffffff\n      and\n        /* \"CreditLetter.sol\":3425:3444  tx.origin == issuer */\n      0xffffffffffffffffffffffffffffffffffffffff\n      and\n        /* \"CreditLetter.sol\":3425:3434  tx.origin */\n      origin\n        /* \"CreditLetter.sol\":3425:3444  tx.origin == issuer */\n      0xffffffffffffffffffffffffffffffffffffffff\n      and\n      eq\n        /* \"CreditLetter.sol\":3425:3469  tx.origin == issuer || tx.origin == acceptor */\n      dup1\n      tag_37\n      jumpi\n      pop\n        /* \"CreditLetter.sol\":3461:3469  acceptor */\n      0x2\n      0x0\n      swap1\n      sload\n      swap1\n      0x100\n      exp\n      swap1\n      div\n      0xffffffffffffffffffffffffffffffffffffffff\n      and\n        /* \"CreditLetter.sol\":3448:3469  tx.origin == acceptor */\n      0xffffffffffffffffffffffffffffffffffffffff\n      and\n        /* \"CreditLetter.sol\":3448:3457  tx.origin */\n      origin\n        /* \"CreditLetter.sol\":3448:3469  tx.origin == acceptor */\n      0xffffffffffffffffffffffffffffffffffffffff\n      and\n      eq\n        /* \"CreditLetter.sol\":3425:3469  tx.origin == issuer || tx.origin == acceptor */\n    tag_37:\n        /* \"CreditLetter.sol\":3416:3521  require (tx.origin == issuer || tx.origin == acceptor, \"Only issuer or acceptor can reset credit amount\") */\n      iszero\n      iszero\n      tag_38\n      jumpi\n      mload(0x40)\n      0x8c379a000000000000000000000000000000000000000000000000000000000\n      dup2\n      mstore\n      0x4\n      add\n      dup1\n      dup1\n      0x20\n      add\n      dup3\n      dup2\n      sub\n      dup3\n      mstore\n      0x2f\n      dup2\n      mstore\n      0x20\n      add\n      dup1\n      0x4f6e6c7920697373756572206f72206163636570746f722063616e2072657365\n      dup2\n      mstore\n      0x20\n      add\n      0x742063726564697420616d6f756e740000000000000000000000000000000000\n      dup2\n      mstore\n      pop\n      0x40\n      add\n      swap2\n      pop\n      pop\n      mload(0x40)\n      dup1\n      swap2\n      sub\n      swap1\n      revert\n    tag_38:\n        /* \"CreditLetter.sol\":3541:3547  amount */\n      dup2\n        /* \"CreditLetter.sol\":3532:3538  credit */\n      0x5\n        /* \"CreditLetter.sol\":3532:3547  credit = amount */\n      dup2\n      swap1\n      sstore\n      pop\n        /* \"CreditLetter.sol\":3563:3603  CreditChanged(credit, amount, timestamp) */\n      0xbe251dfecb445e45c89b4940942865904cf0efeea8fb1e4aa0f340e8370c03cd\n        /* \"CreditLetter.sol\":3577:3583  credit */\n      sload(0x5)\n        /* \"CreditLetter.sol\":3585:3591  amount */\n      dup4\n        /* \"CreditLetter.sol\":3593:3602  timestamp */\n      dup4\n        /* \"CreditLetter.sol\":3563:3603  CreditChanged(credit, amount, timestamp) */\n      mload(0x40)\n      dup1\n      dup5\n      dup2\n      mstore\n      0x20\n      add\n      dup4\n      dup2\n      mstore\n      0x20\n      add\n      dup3\n      dup2\n      mstore\n      0x20\n      add\n      swap4\n      pop\n      pop\n      pop\n      pop\n      mload(0x40)\n      dup1\n      swap2\n      sub\n      swap1\n      log1\n        /* \"CreditLetter.sol\":3296:3611  function resetCreditAmount(uint256 amount, uint256 timestamp) public {\r... */\n      pop\n      pop\n      jump\t// out\n\n    auxdata: 0xa165627a7a723058204f25da2bed8c06261dbc169fe55899b8ea5dd1c93ef4f9100dfd3c8f3b5819440029\n}\n",
				"bytecode": {
					"linkReferences": {},
					"object": "60806040526000600660006101000a81548160ff0219169083151502179055506000600660016101000a81548160ff0219169083151502179055506000600755600160085534801561005057600080fd5b5060405160c080610d8d8339810180604052810190808051906020019092919080519060200190929190805190602001909291908051906020019092919080519060200190929190805190602001909291905050508573ffffffffffffffffffffffffffffffffffffffff163273ffffffffffffffffffffffffffffffffffffffff16148061010a57508373ffffffffffffffffffffffffffffffffffffffff163273ffffffffffffffffffffffffffffffffffffffff16145b15156101a4576040517f08c379a00000000000000000000000000000000000000000000000000000000081526004018080602001828103825260348152602001807f4f6e6c7920697373756572206f72206163636570746f722063616e206973737581526020017f65206869732f686572206f776e206c657474657200000000000000000000000081525060400191505060405180910390fd5b856000806101000a81548173ffffffffffffffffffffffffffffffffffffffff021916908373ffffffffffffffffffffffffffffffffffffffff16021790555084600160006101000a81548173ffffffffffffffffffffffffffffffffffffffff021916908373ffffffffffffffffffffffffffffffffffffffff16021790555083600260006101000a81548173ffffffffffffffffffffffffffffffffffffffff021916908373ffffffffffffffffffffffffffffffffffffffff16021790555082600381905550816004819055508060058190555060098590806001815401808255809150509060018203906000526020600020016000909192909190916101000a81548173ffffffffffffffffffffffffffffffffffffffff021916908373ffffffffffffffffffffffffffffffffffffffff16021790555050600a839080600181540180825580915050906001820390600052602060002001600090919290919091505550505050505050610a6b806103226000396000f30060806040526004361061006d576000357c0100000000000000000000000000000000000000000000000000000000900463ffffffff1680631c9242801461007257806358007b86146100ab5780635a9b0b89146100e4578063a9059cbb146101cc578063bfe389ed14610219575b600080fd5b34801561007e57600080fd5b506100a960048036038101908080351515906020019092919080359060200190929190505050610250565b005b3480156100b757600080fd5b506100e26004803603810190808035151590602001909291908035906020019092919050505061038f565b005b3480156100f057600080fd5b506100f961054b565b604051808973ffffffffffffffffffffffffffffffffffffffff1673ffffffffffffffffffffffffffffffffffffffff1681526020018873ffffffffffffffffffffffffffffffffffffffff1673ffffffffffffffffffffffffffffffffffffffff1681526020018773ffffffffffffffffffffffffffffffffffffffff1673ffffffffffffffffffffffffffffffffffffffff16815260200186815260200185815260200184815260200183151515158152602001821515151581526020019850505050505050505060405180910390f35b3480156101d857600080fd5b50610217600480360381019080803573ffffffffffffffffffffffffffffffffffffffff16906020019092919080359060200190929190505050610602565b005b34801561022557600080fd5b5061024e60048036038101908080359060200190929190803590602001909291905050506108a9565b005b60008111151561025f57600080fd5b600260009054906101000a900473ffffffffffffffffffffffffffffffffffffffff1673ffffffffffffffffffffffffffffffffffffffff163373ffffffffffffffffffffffffffffffffffffffff16141515610324576040517f08c379a00000000000000000000000000000000000000000000000000000000081526004018080602001828103825260158152602001807f4f6e6c79206163636570746f722063616e20706179000000000000000000000081525060200191505060405180910390fd5b81600660016101000a81548160ff0219169083151502179055507f1ecf1b9cee605f7dc61806c2f40429418dbc06abbb7cfe58d1b5480f084af9a060085483836040518084815260200183151515158152602001828152602001935050505060405180910390a15050565b60008111151561039e57600080fd5b600260009054906101000a900473ffffffffffffffffffffffffffffffffffffffff1673ffffffffffffffffffffffffffffffffffffffff163373ffffffffffffffffffffffffffffffffffffffff16148061044657506000809054906101000a900473ffffffffffffffffffffffffffffffffffffffff1673ffffffffffffffffffffffffffffffffffffffff163373ffffffffffffffffffffffffffffffffffffffff16145b15156104e0576040517f08c379a00000000000000000000000000000000000000000000000000000000081526004018080602001828103825260238152602001807f4f6e6c79206163636570746f72206f72206973737565722063616e206170707281526020017f6f7665000000000000000000000000000000000000000000000000000000000081525060400191505060405180910390fd5b81600660006101000a81548160ff0219169083151502179055507f1ecf1b9cee605f7dc61806c2f40429418dbc06abbb7cfe58d1b5480f084af9a060075483836040518084815260200183151515158152602001828152602001935050505060405180910390a15050565b6000806000806000806000806000809054906101000a900473ffffffffffffffffffffffffffffffffffffffff16600160009054906101000a900473ffffffffffffffffffffffffffffffffffffffff16600260009054906101000a900473ffffffffffffffffffffffffffffffffffffffff16600354600454600554600660009054906101000a900460ff16600660019054906101000a900460ff16975097509750975097509750975097509091929394959697565b8173ffffffffffffffffffffffffffffffffffffffff16600160009054906101000a900473ffffffffffffffffffffffffffffffffffffffff1673ffffffffffffffffffffffffffffffffffffffff161415151561065f57600080fd5b60008111151561066e57600080fd5b600160009054906101000a900473ffffffffffffffffffffffffffffffffffffffff1673ffffffffffffffffffffffffffffffffffffffff163373ffffffffffffffffffffffffffffffffffffffff16141515610733576040517f08c379a00000000000000000000000000000000000000000000000000000000081526004018080602001828103825260188152602001807f4f6e6c7920686f6c6465722063616e207472616e73666572000000000000000081525060200191505060405180910390fd5b81600160006101000a81548173ffffffffffffffffffffffffffffffffffffffff021916908373ffffffffffffffffffffffffffffffffffffffff16021790555060093390806001815401808255809150509060018203906000526020600020016000909192909190916101000a81548173ffffffffffffffffffffffffffffffffffffffff021916908373ffffffffffffffffffffffffffffffffffffffff16021790555050600a8190806001815401808255809150509060018203906000526020600020016000909192909190915055507f0b208f30897dd37bbda3db1da3cf917bce605c53cdab4f7be8eaac32c8082f10338383604051808473ffffffffffffffffffffffffffffffffffffffff1673ffffffffffffffffffffffffffffffffffffffff1681526020018373ffffffffffffffffffffffffffffffffffffffff1673ffffffffffffffffffffffffffffffffffffffff168152602001828152602001935050505060405180910390a15050565b6000809054906101000a900473ffffffffffffffffffffffffffffffffffffffff1673ffffffffffffffffffffffffffffffffffffffff163273ffffffffffffffffffffffffffffffffffffffff1614806109515750600260009054906101000a900473ffffffffffffffffffffffffffffffffffffffff1673ffffffffffffffffffffffffffffffffffffffff163273ffffffffffffffffffffffffffffffffffffffff16145b15156109eb576040517f08c379a000000000000000000000000000000000000000000000000000000000815260040180806020018281038252602f8152602001807f4f6e6c7920697373756572206f72206163636570746f722063616e207265736581526020017f742063726564697420616d6f756e74000000000000000000000000000000000081525060400191505060405180910390fd5b816005819055507fbe251dfecb445e45c89b4940942865904cf0efeea8fb1e4aa0f340e8370c03cd600554838360405180848152602001838152602001828152602001935050505060405180910390a150505600a165627a7a723058204f25da2bed8c06261dbc169fe55899b8ea5dd1c93ef4f9100dfd3c8f3b5819440029",
					"opcodes": "PUSH1 0x80 PUSH1 0x40 MSTORE PUSH1 0x0 PUSH1 0x6 PUSH1 0x0 PUSH2 0x100 EXP DUP2 SLOAD DUP2 PUSH1 0xFF MUL NOT AND SWAP1 DUP4 ISZERO ISZERO MUL OR SWAP1 SSTORE POP PUSH1 0x0 PUSH1 0x6 PUSH1 0x1 PUSH2 0x100 EXP DUP2 SLOAD DUP2 PUSH1 0xFF MUL NOT AND SWAP1 DUP4 ISZERO ISZERO MUL OR SWAP1 SSTORE POP PUSH1 0x0 PUSH1 0x7 SSTORE PUSH1 0x1 PUSH1 0x8 SSTORE CALLVALUE DUP1 ISZERO PUSH2 0x50 JUMPI PUSH1 0x0 DUP1 REVERT JUMPDEST POP PUSH1 0x40 MLOAD PUSH1 0xC0 DUP1 PUSH2 0xD8D DUP4 CODECOPY DUP2 ADD DUP1 PUSH1 0x40 MSTORE DUP2 ADD SWAP1 DUP1 DUP1 MLOAD SWAP1 PUSH1 0x20 ADD SWAP1 SWAP3 SWAP2 SWAP1 DUP1 MLOAD SWAP1 PUSH1 0x20 ADD SWAP1 SWAP3 SWAP2 SWAP1 DUP1 MLOAD SWAP1 PUSH1 0x20 ADD SWAP1 SWAP3 SWAP2 SWAP1 DUP1 MLOAD SWAP1 PUSH1 0x20 ADD SWAP1 SWAP3 SWAP2 SWAP1 DUP1 MLOAD SWAP1 PUSH1 0x20 ADD SWAP1 SWAP3 SWAP2 SWAP1 DUP1 MLOAD SWAP1 PUSH1 0x20 ADD SWAP1 SWAP3 SWAP2 SWAP1 POP POP POP DUP6 PUSH20 0xFFFFFFFFFFFFFFFFFFFFFFFFFFFFFFFFFFFFFFFF AND ORIGIN PUSH20 0xFFFFFFFFFFFFFFFFFFFFFFFFFFFFFFFFFFFFFFFF AND EQ DUP1 PUSH2 0x10A JUMPI POP DUP4 PUSH20 0xFFFFFFFFFFFFFFFFFFFFFFFFFFFFFFFFFFFFFFFF AND ORIGIN PUSH20 0xFFFFFFFFFFFFFFFFFFFFFFFFFFFFFFFFFFFFFFFF AND EQ JUMPDEST ISZERO ISZERO PUSH2 0x1A4 JUMPI PUSH1 0x40 MLOAD PUSH32 0x8C379A000000000000000000000000000000000000000000000000000000000 DUP2 MSTORE PUSH1 0x4 ADD DUP1 DUP1 PUSH1 0x20 ADD DUP3 DUP2 SUB DUP3 MSTORE PUSH1 0x34 DUP2 MSTORE PUSH1 0x20 ADD DUP1 PUSH32 0x4F6E6C7920697373756572206F72206163636570746F722063616E2069737375 DUP2 MSTORE PUSH1 0x20 ADD PUSH32 0x65206869732F686572206F776E206C6574746572000000000000000000000000 DUP2 MSTORE POP PUSH1 0x40 ADD SWAP2 POP POP PUSH1 0x40 MLOAD DUP1 SWAP2 SUB SWAP1 REVERT JUMPDEST DUP6 PUSH1 0x0 DUP1 PUSH2 0x100 EXP DUP2 SLOAD DUP2 PUSH20 0xFFFFFFFFFFFFFFFFFFFFFFFFFFFFFFFFFFFFFFFF MUL NOT AND SWAP1 DUP4 PUSH20 0xFFFFFFFFFFFFFFFFFFFFFFFFFFFFFFFFFFFFFFFF AND MUL OR SWAP1 SSTORE POP DUP5 PUSH1 0x1 PUSH1 0x0 PUSH2 0x100 EXP DUP2 SLOAD DUP2 PUSH20 0xFFFFFFFFFFFFFFFFFFFFFFFFFFFFFFFFFFFFFFFF MUL NOT AND SWAP1 DUP4 PUSH20 0xFFFFFFFFFFFFFFFFFFFFFFFFFFFFFFFFFFFFFFFF AND MUL OR SWAP1 SSTORE POP DUP4 PUSH1 0x2 PUSH1 0x0 PUSH2 0x100 EXP DUP2 SLOAD DUP2 PUSH20 0xFFFFFFFFFFFFFFFFFFFFFFFFFFFFFFFFFFFFFFFF MUL NOT AND SWAP1 DUP4 PUSH20 0xFFFFFFFFFFFFFFFFFFFFFFFFFFFFFFFFFFFFFFFF AND MUL OR SWAP1 SSTORE POP DUP3 PUSH1 0x3 DUP2 SWAP1 SSTORE POP DUP2 PUSH1 0x4 DUP2 SWAP1 SSTORE POP DUP1 PUSH1 0x5 DUP2 SWAP1 SSTORE POP PUSH1 0x9 DUP6 SWAP1 DUP1 PUSH1 0x1 DUP2 SLOAD ADD DUP1 DUP3 SSTORE DUP1 SWAP2 POP POP SWAP1 PUSH1 0x1 DUP3 SUB SWAP1 PUSH1 0x0 MSTORE PUSH1 0x20 PUSH1 0x0 KECCAK256 ADD PUSH1 0x0 SWAP1 SWAP2 SWAP3 SWAP1 SWAP2 SWAP1 SWAP2 PUSH2 0x100 EXP DUP2 SLOAD DUP2 PUSH20 0xFFFFFFFFFFFFFFFFFFFFFFFFFFFFFFFFFFFFFFFF MUL NOT AND SWAP1 DUP4 PUSH20 0xFFFFFFFFFFFFFFFFFFFFFFFFFFFFFFFFFFFFFFFF AND MUL OR SWAP1 SSTORE POP POP PUSH1 0xA DUP4 SWAP1 DUP1 PUSH1 0x1 DUP2 SLOAD ADD DUP1 DUP3 SSTORE DUP1 SWAP2 POP POP SWAP1 PUSH1 0x1 DUP3 SUB SWAP1 PUSH1 0x0 MSTORE PUSH1 0x20 PUSH1 0x0 KECCAK256 ADD PUSH1 0x0 SWAP1 SWAP2 SWAP3 SWAP1 SWAP2 SWAP1 SWAP2 POP SSTORE POP POP POP POP POP POP POP PUSH2 0xA6B DUP1 PUSH2 0x322 PUSH1 0x0 CODECOPY PUSH1 0x0 RETURN STOP PUSH1 0x80 PUSH1 0x40 MSTORE PUSH1 0x4 CALLDATASIZE LT PUSH2 0x6D JUMPI PUSH1 0x0 CALLDATALOAD PUSH29 0x100000000000000000000000000000000000000000000000000000000 SWAP1 DIV PUSH4 0xFFFFFFFF AND DUP1 PUSH4 0x1C924280 EQ PUSH2 0x72 JUMPI DUP1 PUSH4 0x58007B86 EQ PUSH2 0xAB JUMPI DUP1 PUSH4 0x5A9B0B89 EQ PUSH2 0xE4 JUMPI DUP1 PUSH4 0xA9059CBB EQ PUSH2 0x1CC JUMPI DUP1 PUSH4 0xBFE389ED EQ PUSH2 0x219 JUMPI JUMPDEST PUSH1 0x0 DUP1 REVERT JUMPDEST CALLVALUE DUP1 ISZERO PUSH2 0x7E JUMPI PUSH1 0x0 DUP1 REVERT JUMPDEST POP PUSH2 0xA9 PUSH1 0x4 DUP1 CALLDATASIZE SUB DUP2 ADD SWAP1 DUP1 DUP1 CALLDATALOAD ISZERO ISZERO SWAP1 PUSH1 0x20 ADD SWAP1 SWAP3 SWAP2 SWAP1 DUP1 CALLDATALOAD SWAP1 PUSH1 0x20 ADD SWAP1 SWAP3 SWAP2 SWAP1 POP POP POP PUSH2 0x250 JUMP JUMPDEST STOP JUMPDEST CALLVALUE DUP1 ISZERO PUSH2 0xB7 JUMPI PUSH1 0x0 DUP1 REVERT JUMPDEST POP PUSH2 0xE2 PUSH1 0x4 DUP1 CALLDATASIZE SUB DUP2 ADD SWAP1 DUP1 DUP1 CALLDATALOAD ISZERO ISZERO SWAP1 PUSH1 0x20 ADD SWAP1 SWAP3 SWAP2 SWAP1 DUP1 CALLDATALOAD SWAP1 PUSH1 0x20 ADD SWAP1 SWAP3 SWAP2 SWAP1 POP POP POP PUSH2 0x38F JUMP JUMPDEST STOP JUMPDEST CALLVALUE DUP1 ISZERO PUSH2 0xF0 JUMPI PUSH1 0x0 DUP1 REVERT JUMPDEST POP PUSH2 0xF9 PUSH2 0x54B JUMP JUMPDEST PUSH1 0x40 MLOAD DUP1 DUP10 PUSH20 0xFFFFFFFFFFFFFFFFFFFFFFFFFFFFFFFFFFFFFFFF AND PUSH20 0xFFFFFFFFFFFFFFFFFFFFFFFFFFFFFFFFFFFFFFFF AND DUP2 MSTORE PUSH1 0x20 ADD DUP9 PUSH20 0xFFFFFFFFFFFFFFFFFFFFFFFFFFFFFFFFFFFFFFFF AND PUSH20 0xFFFFFFFFFFFFFFFFFFFFFFFFFFFFFFFFFFFFFFFF AND DUP2 MSTORE PUSH1 0x20 ADD DUP8 PUSH20 0xFFFFFFFFFFFFFFFFFFFFFFFFFFFFFFFFFFFFFFFF AND PUSH20 0xFFFFFFFFFFFFFFFFFFFFFFFFFFFFFFFFFFFFFFFF AND DUP2 MSTORE PUSH1 0x20 ADD DUP7 DUP2 MSTORE PUSH1 0x20 ADD DUP6 DUP2 MSTORE PUSH1 0x20 ADD DUP5 DUP2 MSTORE PUSH1 0x20 ADD DUP4 ISZERO ISZERO ISZERO ISZERO DUP2 MSTORE PUSH1 0x20 ADD DUP3 ISZERO ISZERO ISZERO ISZERO DUP2 MSTORE PUSH1 0x20 ADD SWAP9 POP POP POP POP POP POP POP POP POP PUSH1 0x40 MLOAD DUP1 SWAP2 SUB SWAP1 RETURN JUMPDEST CALLVALUE DUP1 ISZERO PUSH2 0x1D8 JUMPI PUSH1 0x0 DUP1 REVERT JUMPDEST POP PUSH2 0x217 PUSH1 0x4 DUP1 CALLDATASIZE SUB DUP2 ADD SWAP1 DUP1 DUP1 CALLDATALOAD PUSH20 0xFFFFFFFFFFFFFFFFFFFFFFFFFFFFFFFFFFFFFFFF AND SWAP1 PUSH1 0x20 ADD SWAP1 SWAP3 SWAP2 SWAP1 DUP1 CALLDATALOAD SWAP1 PUSH1 0x20 ADD SWAP1 SWAP3 SWAP2 SWAP1 POP POP POP PUSH2 0x602 JUMP JUMPDEST STOP JUMPDEST CALLVALUE DUP1 ISZERO PUSH2 0x225 JUMPI PUSH1 0x0 DUP1 REVERT JUMPDEST POP PUSH2 0x24E PUSH1 0x4 DUP1 CALLDATASIZE SUB DUP2 ADD SWAP1 DUP1 DUP1 CALLDATALOAD SWAP1 PUSH1 0x20 ADD SWAP1 SWAP3 SWAP2 SWAP1 DUP1 CALLDATALOAD SWAP1 PUSH1 0x20 ADD SWAP1 SWAP3 SWAP2 SWAP1 POP POP POP PUSH2 0x8A9 JUMP JUMPDEST STOP JUMPDEST PUSH1 0x0 DUP2 GT ISZERO ISZERO PUSH2 0x25F JUMPI PUSH1 0x0 DUP1 REVERT JUMPDEST PUSH1 0x2 PUSH1 0x0 SWAP1 SLOAD SWAP1 PUSH2 0x100 EXP SWAP1 DIV PUSH20 0xFFFFFFFFFFFFFFFFFFFFFFFFFFFFFFFFFFFFFFFF AND PUSH20 0xFFFFFFFFFFFFFFFFFFFFFFFFFFFFFFFFFFFFFFFF AND CALLER PUSH20 0xFFFFFFFFFFFFFFFFFFFFFFFFFFFFFFFFFFFFFFFF AND EQ ISZERO ISZERO PUSH2 0x324 JUMPI PUSH1 0x40 MLOAD PUSH32 0x8C379A000000000000000000000000000000000000000000000000000000000 DUP2 MSTORE PUSH1 0x4 ADD DUP1 DUP1 PUSH1 0x20 ADD DUP3 DUP2 SUB DUP3 MSTORE PUSH1 0x15 DUP2 MSTORE PUSH1 0x20 ADD DUP1 PUSH32 0x4F6E6C79206163636570746F722063616E207061790000000000000000000000 DUP2 MSTORE POP PUSH1 0x20 ADD SWAP2 POP POP PUSH1 0x40 MLOAD DUP1 SWAP2 SUB SWAP1 REVERT JUMPDEST DUP2 PUSH1 0x6 PUSH1 0x1 PUSH2 0x100 EXP DUP2 SLOAD DUP2 PUSH1 0xFF MUL NOT AND SWAP1 DUP4 ISZERO ISZERO MUL OR SWAP1 SSTORE POP PUSH32 0x1ECF1B9CEE605F7DC61806C2F40429418DBC06ABBB7CFE58D1B5480F084AF9A0 PUSH1 0x8 SLOAD DUP4 DUP4 PUSH1 0x40 MLOAD DUP1 DUP5 DUP2 MSTORE PUSH1 0x20 ADD DUP4 ISZERO ISZERO ISZERO ISZERO DUP2 MSTORE PUSH1 0x20 ADD DUP3 DUP2 MSTORE PUSH1 0x20 ADD SWAP4 POP POP POP POP PUSH1 0x40 MLOAD DUP1 SWAP2 SUB SWAP1 LOG1 POP POP JUMP JUMPDEST PUSH1 0x0 DUP2 GT ISZERO ISZERO PUSH2 0x39E JUMPI PUSH1 0x0 DUP1 REVERT JUMPDEST PUSH1 0x2 PUSH1 0x0 SWAP1 SLOAD SWAP1 PUSH2 0x100 EXP SWAP1 DIV PUSH20 0xFFFFFFFFFFFFFFFFFFFFFFFFFFFFFFFFFFFFFFFF AND PUSH20 0xFFFFFFFFFFFFFFFFFFFFFFFFFFFFFFFFFFFFFFFF AND CALLER PUSH20 0xFFFFFFFFFFFFFFFFFFFFFFFFFFFFFFFFFFFFFFFF AND EQ DUP1 PUSH2 0x446 JUMPI POP PUSH1 0x0 DUP1 SWAP1 SLOAD SWAP1 PUSH2 0x100 EXP SWAP1 DIV PUSH20 0xFFFFFFFFFFFFFFFFFFFFFFFFFFFFFFFFFFFFFFFF AND PUSH20 0xFFFFFFFFFFFFFFFFFFFFFFFFFFFFFFFFFFFFFFFF AND CALLER PUSH20 0xFFFFFFFFFFFFFFFFFFFFFFFFFFFFFFFFFFFFFFFF AND EQ JUMPDEST ISZERO ISZERO PUSH2 0x4E0 JUMPI PUSH1 0x40 MLOAD PUSH32 0x8C379A000000000000000000000000000000000000000000000000000000000 DUP2 MSTORE PUSH1 0x4 ADD DUP1 DUP1 PUSH1 0x20 ADD DUP3 DUP2 SUB DUP3 MSTORE PUSH1 0x23 DUP2 MSTORE PUSH1 0x20 ADD DUP1 PUSH32 0x4F6E6C79206163636570746F72206F72206973737565722063616E2061707072 DUP2 MSTORE PUSH1 0x20 ADD PUSH32 0x6F76650000000000000000000000000000000000000000000000000000000000 DUP2 MSTORE POP PUSH1 0x40 ADD SWAP2 POP POP PUSH1 0x40 MLOAD DUP1 SWAP2 SUB SWAP1 REVERT JUMPDEST DUP2 PUSH1 0x6 PUSH1 0x0 PUSH2 0x100 EXP DUP2 SLOAD DUP2 PUSH1 0xFF MUL NOT AND SWAP1 DUP4 ISZERO ISZERO MUL OR SWAP1 SSTORE POP PUSH32 0x1ECF1B9CEE605F7DC61806C2F40429418DBC06ABBB7CFE58D1B5480F084AF9A0 PUSH1 0x7 SLOAD DUP4 DUP4 PUSH1 0x40 MLOAD DUP1 DUP5 DUP2 MSTORE PUSH1 0x20 ADD DUP4 ISZERO ISZERO ISZERO ISZERO DUP2 MSTORE PUSH1 0x20 ADD DUP3 DUP2 MSTORE PUSH1 0x20 ADD SWAP4 POP POP POP POP PUSH1 0x40 MLOAD DUP1 SWAP2 SUB SWAP1 LOG1 POP POP JUMP JUMPDEST PUSH1 0x0 DUP1 PUSH1 0x0 DUP1 PUSH1 0x0 DUP1 PUSH1 0x0 DUP1 PUSH1 0x0 DUP1 SWAP1 SLOAD SWAP1 PUSH2 0x100 EXP SWAP1 DIV PUSH20 0xFFFFFFFFFFFFFFFFFFFFFFFFFFFFFFFFFFFFFFFF AND PUSH1 0x1 PUSH1 0x0 SWAP1 SLOAD SWAP1 PUSH2 0x100 EXP SWAP1 DIV PUSH20 0xFFFFFFFFFFFFFFFFFFFFFFFFFFFFFFFFFFFFFFFF AND PUSH1 0x2 PUSH1 0x0 SWAP1 SLOAD SWAP1 PUSH2 0x100 EXP SWAP1 DIV PUSH20 0xFFFFFFFFFFFFFFFFFFFFFFFFFFFFFFFFFFFFFFFF AND PUSH1 0x3 SLOAD PUSH1 0x4 SLOAD PUSH1 0x5 SLOAD PUSH1 0x6 PUSH1 0x0 SWAP1 SLOAD SWAP1 PUSH2 0x100 EXP SWAP1 DIV PUSH1 0xFF AND PUSH1 0x6 PUSH1 0x1 SWAP1 SLOAD SWAP1 PUSH2 0x100 EXP SWAP1 DIV PUSH1 0xFF AND SWAP8 POP SWAP8 POP SWAP8 POP SWAP8 POP SWAP8 POP SWAP8 POP SWAP8 POP SWAP8 POP SWAP1 SWAP2 SWAP3 SWAP4 SWAP5 SWAP6 SWAP7 SWAP8 JUMP JUMPDEST DUP2 PUSH20 0xFFFFFFFFFFFFFFFFFFFFFFFFFFFFFFFFFFFFFFFF AND PUSH1 0x1 PUSH1 0x0 SWAP1 SLOAD SWAP1 PUSH2 0x100 EXP SWAP1 DIV PUSH20 0xFFFFFFFFFFFFFFFFFFFFFFFFFFFFFFFFFFFFFFFF AND PUSH20 0xFFFFFFFFFFFFFFFFFFFFFFFFFFFFFFFFFFFFFFFF AND EQ ISZERO ISZERO ISZERO PUSH2 0x65F JUMPI PUSH1 0x0 DUP1 REVERT JUMPDEST PUSH1 0x0 DUP2 GT ISZERO ISZERO PUSH2 0x66E JUMPI PUSH1 0x0 DUP1 REVERT JUMPDEST PUSH1 0x1 PUSH1 0x0 SWAP1 SLOAD SWAP1 PUSH2 0x100 EXP SWAP1 DIV PUSH20 0xFFFFFFFFFFFFFFFFFFFFFFFFFFFFFFFFFFFFFFFF AND PUSH20 0xFFFFFFFFFFFFFFFFFFFFFFFFFFFFFFFFFFFFFFFF AND CALLER PUSH20 0xFFFFFFFFFFFFFFFFFFFFFFFFFFFFFFFFFFFFFFFF AND EQ ISZERO ISZERO PUSH2 0x733 JUMPI PUSH1 0x40 MLOAD PUSH32 0x8C379A000000000000000000000000000000000000000000000000000000000 DUP2 MSTORE PUSH1 0x4 ADD DUP1 DUP1 PUSH1 0x20 ADD DUP3 DUP2 SUB DUP3 MSTORE PUSH1 0x18 DUP2 MSTORE PUSH1 0x20 ADD DUP1 PUSH32 0x4F6E6C7920686F6C6465722063616E207472616E736665720000000000000000 DUP2 MSTORE POP PUSH1 0x20 ADD SWAP2 POP POP PUSH1 0x40 MLOAD DUP1 SWAP2 SUB SWAP1 REVERT JUMPDEST DUP2 PUSH1 0x1 PUSH1 0x0 PUSH2 0x100 EXP DUP2 SLOAD DUP2 PUSH20 0xFFFFFFFFFFFFFFFFFFFFFFFFFFFFFFFFFFFFFFFF MUL NOT AND SWAP1 DUP4 PUSH20 0xFFFFFFFFFFFFFFFFFFFFFFFFFFFFFFFFFFFFFFFF AND MUL OR SWAP1 SSTORE POP PUSH1 0x9 CALLER SWAP1 DUP1 PUSH1 0x1 DUP2 SLOAD ADD DUP1 DUP3 SSTORE DUP1 SWAP2 POP POP SWAP1 PUSH1 0x1 DUP3 SUB SWAP1 PUSH1 0x0 MSTORE PUSH1 0x20 PUSH1 0x0 KECCAK256 ADD PUSH1 0x0 SWAP1 SWAP2 SWAP3 SWAP1 SWAP2 SWAP1 SWAP2 PUSH2 0x100 EXP DUP2 SLOAD DUP2 PUSH20 0xFFFFFFFFFFFFFFFFFFFFFFFFFFFFFFFFFFFFFFFF MUL NOT AND SWAP1 DUP4 PUSH20 0xFFFFFFFFFFFFFFFFFFFFFFFFFFFFFFFFFFFFFFFF AND MUL OR SWAP1 SSTORE POP POP PUSH1 0xA DUP2 SWAP1 DUP1 PUSH1 0x1 DUP2 SLOAD ADD DUP1 DUP3 SSTORE DUP1 SWAP2 POP POP SWAP1 PUSH1 0x1 DUP3 SUB SWAP1 PUSH1 0x0 MSTORE PUSH1 0x20 PUSH1 0x0 KECCAK256 ADD PUSH1 0x0 SWAP1 SWAP2 SWAP3 SWAP1 SWAP2 SWAP1 SWAP2 POP SSTORE POP PUSH32 0xB208F30897DD37BBDA3DB1DA3CF917BCE605C53CDAB4F7BE8EAAC32C8082F10 CALLER DUP4 DUP4 PUSH1 0x40 MLOAD DUP1 DUP5 PUSH20 0xFFFFFFFFFFFFFFFFFFFFFFFFFFFFFFFFFFFFFFFF AND PUSH20 0xFFFFFFFFFFFFFFFFFFFFFFFFFFFFFFFFFFFFFFFF AND DUP2 MSTORE PUSH1 0x20 ADD DUP4 PUSH20 0xFFFFFFFFFFFFFFFFFFFFFFFFFFFFFFFFFFFFFFFF AND PUSH20 0xFFFFFFFFFFFFFFFFFFFFFFFFFFFFFFFFFFFFFFFF AND DUP2 MSTORE PUSH1 0x20 ADD DUP3 DUP2 MSTORE PUSH1 0x20 ADD SWAP4 POP POP POP POP PUSH1 0x40 MLOAD DUP1 SWAP2 SUB SWAP1 LOG1 POP POP JUMP JUMPDEST PUSH1 0x0 DUP1 SWAP1 SLOAD SWAP1 PUSH2 0x100 EXP SWAP1 DIV PUSH20 0xFFFFFFFFFFFFFFFFFFFFFFFFFFFFFFFFFFFFFFFF AND PUSH20 0xFFFFFFFFFFFFFFFFFFFFFFFFFFFFFFFFFFFFFFFF AND ORIGIN PUSH20 0xFFFFFFFFFFFFFFFFFFFFFFFFFFFFFFFFFFFFFFFF AND EQ DUP1 PUSH2 0x951 JUMPI POP PUSH1 0x2 PUSH1 0x0 SWAP1 SLOAD SWAP1 PUSH2 0x100 EXP SWAP1 DIV PUSH20 0xFFFFFFFFFFFFFFFFFFFFFFFFFFFFFFFFFFFFFFFF AND PUSH20 0xFFFFFFFFFFFFFFFFFFFFFFFFFFFFFFFFFFFFFFFF AND ORIGIN PUSH20 0xFFFFFFFFFFFFFFFFFFFFFFFFFFFFFFFFFFFFFFFF AND EQ JUMPDEST ISZERO ISZERO PUSH2 0x9EB JUMPI PUSH1 0x40 MLOAD PUSH32 0x8C379A000000000000000000000000000000000000000000000000000000000 DUP2 MSTORE PUSH1 0x4 ADD DUP1 DUP1 PUSH1 0x20 ADD DUP3 DUP2 SUB DUP3 MSTORE PUSH1 0x2F DUP2 MSTORE PUSH1 0x20 ADD DUP1 PUSH32 0x4F6E6C7920697373756572206F72206163636570746F722063616E2072657365 DUP2 MSTORE PUSH1 0x20 ADD PUSH32 0x742063726564697420616D6F756E740000000000000000000000000000000000 DUP2 MSTORE POP PUSH1 0x40 ADD SWAP2 POP POP PUSH1 0x40 MLOAD DUP1 SWAP2 SUB SWAP1 REVERT JUMPDEST DUP2 PUSH1 0x5 DUP2 SWAP1 SSTORE POP PUSH32 0xBE251DFECB445E45C89B4940942865904CF0EFEEA8FB1E4AA0F340E8370C03CD PUSH1 0x5 SLOAD DUP4 DUP4 PUSH1 0x40 MLOAD DUP1 DUP5 DUP2 MSTORE PUSH1 0x20 ADD DUP4 DUP2 MSTORE PUSH1 0x20 ADD DUP3 DUP2 MSTORE PUSH1 0x20 ADD SWAP4 POP POP POP POP PUSH1 0x40 MLOAD DUP1 SWAP2 SUB SWAP1 LOG1 POP POP JUMP STOP LOG1 PUSH6 0x627A7A723058 KECCAK256 0x4f 0x25 0xda 0x2b 0xed DUP13 MOD 0x26 SAR 0xbc AND SWAP16 0xe5 PC SWAP10 0xb8 0xea 0x5d 0xd1 0xc9 RETURNDATACOPY DELEGATECALL 0xf9 LT 0xd REVERT EXTCODECOPY DUP16 EXTCODESIZE PC NOT DIFFICULTY STOP 0x29 "
				},
				"gasEstimates": {
					"creation": {
						"codeDepositCost": "533400",
						"executionCost": "268250",
						"totalCost": "801650"
					},
					"external": {
						"getInfo()": "2374",
						"resetCreditAmount(uint256,uint256)": "22698",
						"setStatusApproved(bool,uint256)": "22932",
						"setStatusPaid(bool,uint256)": "22685",
						"transfer(address,uint256)": "103709"
					}
				},
				"methodIdentifiers": {
					"getInfo()": "5a9b0b89",
					"resetCreditAmount(uint256,uint256)": "bfe389ed",
					"setStatusApproved(bool,uint256)": "58007b86",
					"setStatusPaid(bool,uint256)": "1c924280",
					"transfer(address,uint256)": "a9059cbb"
				}
			},
			"userdoc": {
				"methods": {}
			}
		}
	}
}