{
	"Config.sol": {
		"A": {
			"abi": [
				{
					"constant": false,
					"inputs": [],
					"name": "callContractB",
					"outputs": [
						{
							"name": "",
							"type": "address"
						}
					],
					"payable": false,
					"stateMutability": "nonpayable",
					"type": "function"
				}
			],
			"devdoc": {
				"methods": {}
			},
			"evm": {
				"assembly": "    /* \"Config.sol\":272:410  contract A {\r... */\n  mstore(0x40, 0x60)\n  jumpi(tag_1, iszero(callvalue))\n  0x0\n  dup1\n  revert\ntag_1:\n  dataSize(sub_0)\n  dup1\n  dataOffset(sub_0)\n  0x0\n  codecopy\n  0x0\n  return\nstop\n\nsub_0: assembly {\n        /* \"Config.sol\":272:410  contract A {\r... */\n      mstore(0x40, 0x60)\n      jumpi(tag_1, lt(calldatasize, 0x4))\n      calldataload(0x0)\n      0x100000000000000000000000000000000000000000000000000000000\n      swap1\n      div\n      0xffffffff\n      and\n      dup1\n      0x6428f3dc\n      eq\n      tag_2\n      jumpi\n    tag_1:\n      0x0\n      dup1\n      revert\n        /* \"Config.sol\":290:407  function callContractB() public returns(address){\r... */\n    tag_2:\n      jumpi(tag_3, iszero(callvalue))\n      0x0\n      dup1\n      revert\n    tag_3:\n      tag_4\n      jump(tag_5)\n    tag_4:\n      mload(0x40)\n      dup1\n      dup3\n      0xffffffffffffffffffffffffffffffffffffffff\n      and\n      0xffffffffffffffffffffffffffffffffffffffff\n      and\n      dup2\n      mstore\n      0x20\n      add\n      swap2\n      pop\n      pop\n      mload(0x40)\n      dup1\n      swap2\n      sub\n      swap1\n      return\n    tag_5:\n        /* \"Config.sol\":330:337  address */\n      0x0\n        /* \"Config.sol\":349:353  B _b */\n      dup1\n        /* \"Config.sol\":356:363  new B() */\n      tag_7\n      jump\t// in(tag_8)\n    tag_7:\n      mload(0x40)\n      dup1\n      swap2\n      sub\n      swap1\n      0x0\n      create\n      dup1\n      iszero\n      iszero\n      tag_9\n      jumpi\n      0x0\n      dup1\n      revert\n    tag_9:\n        /* \"Config.sol\":349:363  B _b = new B() */\n      swap1\n      pop\n        /* \"Config.sol\":381:383  _b */\n      dup1\n        /* \"Config.sol\":381:397  _b.callContractC */\n      0xffffffffffffffffffffffffffffffffffffffff\n      and\n      0x35d7a260\n        /* \"Config.sol\":381:399  _b.callContractC() */\n      mstore(add(0x20, mload(0x40)), 0x0)\n      mload(0x40)\n      dup2\n      0xffffffff\n      and\n      0x100000000000000000000000000000000000000000000000000000000\n      mul\n      dup2\n      mstore\n      0x4\n      add\n      0x20\n      mload(0x40)\n      dup1\n      dup4\n      sub\n      dup2\n      0x0\n      dup8\n      dup1\n      extcodesize\n      iszero\n      iszero\n      tag_10\n      jumpi\n      0x0\n      dup1\n      revert\n    tag_10:\n      sub(gas, 0x2c6)\n      call\n      iszero\n      iszero\n      tag_11\n      jumpi\n      0x0\n      dup1\n      revert\n    tag_11:\n      pop\n      pop\n      pop\n      mload(0x40)\n      dup1\n      mload\n      swap1\n      pop\n        /* \"Config.sol\":374:399  return _b.callContractC() */\n      swap2\n      pop\n        /* \"Config.sol\":290:407  function callContractB() public returns(address){\r... */\n      pop\n      swap1\n      jump\t// out\n        /* \"Config.sol\":272:410  contract A {\r... */\n    tag_8:\n      mload(0x40)\n      dataSize(sub_0)\n      dup1\n      dataOffset(sub_0)\n      dup4\n      codecopy\n      add\n      swap1\n      jump\t// out\n    stop\n\n    sub_0: assembly {\n            /* \"Config.sol\":130:266  contract B {\r... */\n          mstore(0x40, 0x60)\n          jumpi(tag_1, iszero(callvalue))\n          0x0\n          dup1\n          revert\n        tag_1:\n          dataSize(sub_0)\n          dup1\n          dataOffset(sub_0)\n          0x0\n          codecopy\n          0x0\n          return\n        stop\n\n        sub_0: assembly {\n                /* \"Config.sol\":130:266  contract B {\r... */\n              mstore(0x40, 0x60)\n              jumpi(tag_1, lt(calldatasize, 0x4))\n              calldataload(0x0)\n              0x100000000000000000000000000000000000000000000000000000000\n              swap1\n              div\n              0xffffffff\n              and\n              dup1\n              0x35d7a260\n              eq\n              tag_2\n              jumpi\n            tag_1:\n              0x0\n              dup1\n              revert\n                /* \"Config.sol\":148:263  function callContractC() public returns(address){\r... */\n            tag_2:\n              jumpi(tag_3, iszero(callvalue))\n              0x0\n              dup1\n              revert\n            tag_3:\n              tag_4\n              jump(tag_5)\n            tag_4:\n              mload(0x40)\n              dup1\n              dup3\n              0xffffffffffffffffffffffffffffffffffffffff\n              and\n              0xffffffffffffffffffffffffffffffffffffffff\n              and\n              dup2\n              mstore\n              0x20\n              add\n              swap2\n              pop\n              pop\n              mload(0x40)\n              dup1\n              swap2\n              sub\n              swap1\n              return\n            tag_5:\n                /* \"Config.sol\":188:195  address */\n              0x0\n                /* \"Config.sol\":207:211  C _c */\n              dup1\n                /* \"Config.sol\":214:221  new C() */\n              tag_7\n              jump\t// in(tag_8)\n            tag_7:\n              mload(0x40)\n              dup1\n              swap2\n              sub\n              swap1\n              0x0\n              create\n              dup1\n              iszero\n              iszero\n              tag_9\n              jumpi\n              0x0\n              dup1\n              revert\n            tag_9:\n                /* \"Config.sol\":207:221  C _c = new C() */\n              swap1\n              pop\n                /* \"Config.sol\":239:241  _c */\n              dup1\n                /* \"Config.sol\":239:253  _c.sendAddress */\n              0xffffffffffffffffffffffffffffffffffffffff\n              and\n              0x328e94a5\n                /* \"Config.sol\":239:255  _c.sendAddress() */\n              mstore(add(0x20, mload(0x40)), 0x0)\n              mload(0x40)\n              dup2\n              0xffffffff\n              and\n              0x100000000000000000000000000000000000000000000000000000000\n              mul\n              dup2\n              mstore\n              0x4\n              add\n              0x20\n              mload(0x40)\n              dup1\n              dup4\n              sub\n              dup2\n              0x0\n              dup8\n              dup1\n              extcodesize\n              iszero\n              iszero\n              tag_10\n              jumpi\n              0x0\n              dup1\n              revert\n            tag_10:\n              sub(gas, 0x2c6)\n              call\n              iszero\n              iszero\n              tag_11\n              jumpi\n              0x0\n              dup1\n              revert\n            tag_11:\n              pop\n              pop\n              pop\n              mload(0x40)\n              dup1\n              mload\n              swap1\n              pop\n                /* \"Config.sol\":232:255  return _c.sendAddress() */\n              swap2\n              pop\n                /* \"Config.sol\":148:263  function callContractC() public returns(address){\r... */\n              pop\n              swap1\n              jump\t// out\n                /* \"Config.sol\":130:266  contract B {\r... */\n            tag_8:\n              mload(0x40)\n              dataSize(sub_0)\n              dup1\n              dataOffset(sub_0)\n              dup4\n              codecopy\n              add\n              swap1\n              jump\t// out\n            stop\n\n            sub_0: assembly {\n                    /* \"Config.sol\":28:126  contract C {\r... */\n                  mstore(0x40, 0x60)\n                  jumpi(tag_1, iszero(callvalue))\n                  0x0\n                  dup1\n                  revert\n                tag_1:\n                  dataSize(sub_0)\n                  dup1\n                  dataOffset(sub_0)\n                  0x0\n                  codecopy\n                  0x0\n                  return\n                stop\n\n                sub_0: assembly {\n                        /* \"Config.sol\":28:126  contract C {\r... */\n                      mstore(0x40, 0x60)\n                      jumpi(tag_1, lt(calldatasize, 0x4))\n                      calldataload(0x0)\n                      0x100000000000000000000000000000000000000000000000000000000\n                      swap1\n                      div\n                      0xffffffff\n                      and\n                      dup1\n                      0x328e94a5\n                      eq\n                      tag_2\n                      jumpi\n                    tag_1:\n                      0x0\n                      dup1\n                      revert\n                        /* \"Config.sol\":46:123  function sendAddress() public view returns(address){\r... */\n                    tag_2:\n                      jumpi(tag_3, iszero(callvalue))\n                      0x0\n                      dup1\n                      revert\n                    tag_3:\n                      tag_4\n                      jump(tag_5)\n                    tag_4:\n                      mload(0x40)\n                      dup1\n                      dup3\n                      0xffffffffffffffffffffffffffffffffffffffff\n                      and\n                      0xffffffffffffffffffffffffffffffffffffffff\n                      and\n                      dup2\n                      mstore\n                      0x20\n                      add\n                      swap2\n                      pop\n                      pop\n                      mload(0x40)\n                      dup1\n                      swap2\n                      sub\n                      swap1\n                      return\n                    tag_5:\n                        /* \"Config.sol\":89:96  address */\n                      0x0\n                        /* \"Config.sol\":46:123  function sendAddress() public view returns(address){\r... */\n                      swap1\n                      jump\t// out\n\n                    auxdata: 0xa165627a7a723058203f0e89403e9838ed85f4c0268de7f387e390129c089ae0a449f0bb3f98ec18050029\n                }\n            }\n\n            auxdata: 0xa165627a7a723058202119244fa294f14c2ba4bdb02cdd3eae565611abb96aa603e956e8fbf580c16f0029\n        }\n    }\n\n    auxdata: 0xa165627a7a723058202d4ea4bb7c569617f9bd06cf88ea85cb0abb84060b79a1ca46afd90873230ed20029\n}\n",
				"bytecode": {
					"linkReferences": {},
					"object": "6060604052341561000f57600080fd5b61040f8061001e6000396000f300606060405260043610610041576000357c0100000000000000000000000000000000000000000000000000000000900463ffffffff1680636428f3dc14610046575b600080fd5b341561005157600080fd5b61005961009b565b604051808273ffffffffffffffffffffffffffffffffffffffff1673ffffffffffffffffffffffffffffffffffffffff16815260200191505060405180910390f35b6000806100a661014b565b604051809103906000f08015156100bc57600080fd5b90508073ffffffffffffffffffffffffffffffffffffffff166335d7a2606000604051602001526040518163ffffffff167c0100000000000000000000000000000000000000000000000000000000028152600401602060405180830381600087803b151561012a57600080fd5b6102c65a03f1151561013b57600080fd5b5050506040518051905091505090565b6040516102888061015c8339019056006060604052341561000f57600080fd5b61026a8061001e6000396000f300606060405260043610610041576000357c0100000000000000000000000000000000000000000000000000000000900463ffffffff16806335d7a26014610046575b600080fd5b341561005157600080fd5b61005961009b565b604051808273ffffffffffffffffffffffffffffffffffffffff1673ffffffffffffffffffffffffffffffffffffffff16815260200191505060405180910390f35b6000806100a661014b565b604051809103906000f08015156100bc57600080fd5b90508073ffffffffffffffffffffffffffffffffffffffff1663328e94a56000604051602001526040518163ffffffff167c0100000000000000000000000000000000000000000000000000000000028152600401602060405180830381600087803b151561012a57600080fd5b6102c65a03f1151561013b57600080fd5b5050506040518051905091505090565b60405160e48061015b8339019056006060604052341561000f57600080fd5b60c78061001d6000396000f300606060405260043610603f576000357c0100000000000000000000000000000000000000000000000000000000900463ffffffff168063328e94a5146044575b600080fd5b3415604e57600080fd5b60546096565b604051808273ffffffffffffffffffffffffffffffffffffffff1673ffffffffffffffffffffffffffffffffffffffff16815260200191505060405180910390f35b6000905600a165627a7a723058203f0e89403e9838ed85f4c0268de7f387e390129c089ae0a449f0bb3f98ec18050029a165627a7a723058202119244fa294f14c2ba4bdb02cdd3eae565611abb96aa603e956e8fbf580c16f0029a165627a7a723058202d4ea4bb7c569617f9bd06cf88ea85cb0abb84060b79a1ca46afd90873230ed20029",
					"opcodes": "PUSH1 0x60 PUSH1 0x40 MSTORE CALLVALUE ISZERO PUSH2 0xF JUMPI PUSH1 0x0 DUP1 REVERT JUMPDEST PUSH2 0x40F DUP1 PUSH2 0x1E PUSH1 0x0 CODECOPY PUSH1 0x0 RETURN STOP PUSH1 0x60 PUSH1 0x40 MSTORE PUSH1 0x4 CALLDATASIZE LT PUSH2 0x41 JUMPI PUSH1 0x0 CALLDATALOAD PUSH29 0x100000000000000000000000000000000000000000000000000000000 SWAP1 DIV PUSH4 0xFFFFFFFF AND DUP1 PUSH4 0x6428F3DC EQ PUSH2 0x46 JUMPI JUMPDEST PUSH1 0x0 DUP1 REVERT JUMPDEST CALLVALUE ISZERO PUSH2 0x51 JUMPI PUSH1 0x0 DUP1 REVERT JUMPDEST PUSH2 0x59 PUSH2 0x9B JUMP JUMPDEST PUSH1 0x40 MLOAD DUP1 DUP3 PUSH20 0xFFFFFFFFFFFFFFFFFFFFFFFFFFFFFFFFFFFFFFFF AND PUSH20 0xFFFFFFFFFFFFFFFFFFFFFFFFFFFFFFFFFFFFFFFF AND DUP2 MSTORE PUSH1 0x20 ADD SWAP2 POP POP PUSH1 0x40 MLOAD DUP1 SWAP2 SUB SWAP1 RETURN JUMPDEST PUSH1 0x0 DUP1 PUSH2 0xA6 PUSH2 0x14B JUMP JUMPDEST PUSH1 0x40 MLOAD DUP1 SWAP2 SUB SWAP1 PUSH1 0x0 CREATE DUP1 ISZERO ISZERO PUSH2 0xBC JUMPI PUSH1 0x0 DUP1 REVERT JUMPDEST SWAP1 POP DUP1 PUSH20 0xFFFFFFFFFFFFFFFFFFFFFFFFFFFFFFFFFFFFFFFF AND PUSH4 0x35D7A260 PUSH1 0x0 PUSH1 0x40 MLOAD PUSH1 0x20 ADD MSTORE PUSH1 0x40 MLOAD DUP2 PUSH4 0xFFFFFFFF AND PUSH29 0x100000000000000000000000000000000000000000000000000000000 MUL DUP2 MSTORE PUSH1 0x4 ADD PUSH1 0x20 PUSH1 0x40 MLOAD DUP1 DUP4 SUB DUP2 PUSH1 0x0 DUP8 DUP1 EXTCODESIZE ISZERO ISZERO PUSH2 0x12A JUMPI PUSH1 0x0 DUP1 REVERT JUMPDEST PUSH2 0x2C6 GAS SUB CALL ISZERO ISZERO PUSH2 0x13B JUMPI PUSH1 0x0 DUP1 REVERT JUMPDEST POP POP POP PUSH1 0x40 MLOAD DUP1 MLOAD SWAP1 POP SWAP2 POP POP SWAP1 JUMP JUMPDEST PUSH1 0x40 MLOAD PUSH2 0x288 DUP1 PUSH2 0x15C DUP4 CODECOPY ADD SWAP1 JUMP STOP PUSH1 0x60 PUSH1 0x40 MSTORE CALLVALUE ISZERO PUSH2 0xF JUMPI PUSH1 0x0 DUP1 REVERT JUMPDEST PUSH2 0x26A DUP1 PUSH2 0x1E PUSH1 0x0 CODECOPY PUSH1 0x0 RETURN STOP PUSH1 0x60 PUSH1 0x40 MSTORE PUSH1 0x4 CALLDATASIZE LT PUSH2 0x41 JUMPI PUSH1 0x0 CALLDATALOAD PUSH29 0x100000000000000000000000000000000000000000000000000000000 SWAP1 DIV PUSH4 0xFFFFFFFF AND DUP1 PUSH4 0x35D7A260 EQ PUSH2 0x46 JUMPI JUMPDEST PUSH1 0x0 DUP1 REVERT JUMPDEST CALLVALUE ISZERO PUSH2 0x51 JUMPI PUSH1 0x0 DUP1 REVERT JUMPDEST PUSH2 0x59 PUSH2 0x9B JUMP JUMPDEST PUSH1 0x40 MLOAD DUP1 DUP3 PUSH20 0xFFFFFFFFFFFFFFFFFFFFFFFFFFFFFFFFFFFFFFFF AND PUSH20 0xFFFFFFFFFFFFFFFFFFFFFFFFFFFFFFFFFFFFFFFF AND DUP2 MSTORE PUSH1 0x20 ADD SWAP2 POP POP PUSH1 0x40 MLOAD DUP1 SWAP2 SUB SWAP1 RETURN JUMPDEST PUSH1 0x0 DUP1 PUSH2 0xA6 PUSH2 0x14B JUMP JUMPDEST PUSH1 0x40 MLOAD DUP1 SWAP2 SUB SWAP1 PUSH1 0x0 CREATE DUP1 ISZERO ISZERO PUSH2 0xBC JUMPI PUSH1 0x0 DUP1 REVERT JUMPDEST SWAP1 POP DUP1 PUSH20 0xFFFFFFFFFFFFFFFFFFFFFFFFFFFFFFFFFFFFFFFF AND PUSH4 0x328E94A5 PUSH1 0x0 PUSH1 0x40 MLOAD PUSH1 0x20 ADD MSTORE PUSH1 0x40 MLOAD DUP2 PUSH4 0xFFFFFFFF AND PUSH29 0x100000000000000000000000000000000000000000000000000000000 MUL DUP2 MSTORE PUSH1 0x4 ADD PUSH1 0x20 PUSH1 0x40 MLOAD DUP1 DUP4 SUB DUP2 PUSH1 0x0 DUP8 DUP1 EXTCODESIZE ISZERO ISZERO PUSH2 0x12A JUMPI PUSH1 0x0 DUP1 REVERT JUMPDEST PUSH2 0x2C6 GAS SUB CALL ISZERO ISZERO PUSH2 0x13B JUMPI PUSH1 0x0 DUP1 REVERT JUMPDEST POP POP POP PUSH1 0x40 MLOAD DUP1 MLOAD SWAP1 POP SWAP2 POP POP SWAP1 JUMP JUMPDEST PUSH1 0x40 MLOAD PUSH1 0xE4 DUP1 PUSH2 0x15B DUP4 CODECOPY ADD SWAP1 JUMP STOP PUSH1 0x60 PUSH1 0x40 MSTORE CALLVALUE ISZERO PUSH2 0xF JUMPI PUSH1 0x0 DUP1 REVERT JUMPDEST PUSH1 0xC7 DUP1 PUSH2 0x1D PUSH1 0x0 CODECOPY PUSH1 0x0 RETURN STOP PUSH1 0x60 PUSH1 0x40 MSTORE PUSH1 0x4 CALLDATASIZE LT PUSH1 0x3F JUMPI PUSH1 0x0 CALLDATALOAD PUSH29 0x100000000000000000000000000000000000000000000000000000000 SWAP1 DIV PUSH4 0xFFFFFFFF AND DUP1 PUSH4 0x328E94A5 EQ PUSH1 0x44 JUMPI JUMPDEST PUSH1 0x0 DUP1 REVERT JUMPDEST CALLVALUE ISZERO PUSH1 0x4E JUMPI PUSH1 0x0 DUP1 REVERT JUMPDEST PUSH1 0x54 PUSH1 0x96 JUMP JUMPDEST PUSH1 0x40 MLOAD DUP1 DUP3 PUSH20 0xFFFFFFFFFFFFFFFFFFFFFFFFFFFFFFFFFFFFFFFF AND PUSH20 0xFFFFFFFFFFFFFFFFFFFFFFFFFFFFFFFFFFFFFFFF AND DUP2 MSTORE PUSH1 0x20 ADD SWAP2 POP POP PUSH1 0x40 MLOAD DUP1 SWAP2 SUB SWAP1 RETURN JUMPDEST PUSH1 0x0 SWAP1 JUMP STOP LOG1 PUSH6 0x627A7A723058 KECCAK256 0x3f 0xe DUP10 BLOCKHASH RETURNDATACOPY SWAP9 CODESIZE 0xed DUP6 DELEGATECALL 0xc0 0x26 DUP14 0xe7 RETURN DUP8 0xe3 SWAP1 SLT SWAP13 ADDMOD SWAP11 0xe0 LOG4 0x49 CREATE 0xbb 0x3f SWAP9 0xec XOR SDIV STOP 0x29 LOG1 PUSH6 0x627A7A723058 KECCAK256 0x21 NOT 0x24 0x4f LOG2 SWAP5 CALL 0x4c 0x2b LOG4 0xbd 0xb0 0x2c 0xdd RETURNDATACOPY 0xae JUMP JUMP GT 0xab 0xb9 PUSH11 0xA603E956E8FBF580C16F00 0x29 LOG1 PUSH6 0x627A7A723058 KECCAK256 0x2d 0x4e LOG4 0xbb PUSH29 0x569617F9BD06CF88EA85CB0ABB84060B79A1CA46AFD90873230ED20029 "
				},
				"gasEstimates": {
					"creation": {
						"codeDepositCost": "207800",
						"executionCost": "246",
						"totalCost": "208046"
					},
					"external": {
						"callContractB()": "infinite"
					}
				},
				"methodIdentifiers": {
					"callContractB()": "6428f3dc"
				}
			},
			"userdoc": {
				"methods": {}
			}
		}
	}
}