{
	"Config.sol": {
		"A": {
			"abi": [
				{
					"constant": false,
					"inputs": [],
					"name": "callContractB",
					"outputs": [
						{
							"name": "",
							"type": "address"
						}
					],
					"payable": false,
					"stateMutability": "nonpayable",
					"type": "function"
				}
			],
			"devdoc": {
				"methods": {}
			},
			"evm": {
				"assembly": "    /* \"Config.sol\":281:419  contract A {\r... */\n  mstore(0x40, 0x60)\n  jumpi(tag_1, iszero(callvalue))\n  0x0\n  dup1\n  revert\ntag_1:\n  dataSize(sub_0)\n  dup1\n  dataOffset(sub_0)\n  0x0\n  codecopy\n  0x0\n  return\nstop\n\nsub_0: assembly {\n        /* \"Config.sol\":281:419  contract A {\r... */\n      mstore(0x40, 0x60)\n      jumpi(tag_1, lt(calldatasize, 0x4))\n      calldataload(0x0)\n      0x100000000000000000000000000000000000000000000000000000000\n      swap1\n      div\n      0xffffffff\n      and\n      dup1\n      0x6428f3dc\n      eq\n      tag_2\n      jumpi\n    tag_1:\n      0x0\n      dup1\n      revert\n        /* \"Config.sol\":299:416  function callContractB() public returns(address){\r... */\n    tag_2:\n      jumpi(tag_3, iszero(callvalue))\n      0x0\n      dup1\n      revert\n    tag_3:\n      tag_4\n      jump(tag_5)\n    tag_4:\n      mload(0x40)\n      dup1\n      dup3\n      0xffffffffffffffffffffffffffffffffffffffff\n      and\n      0xffffffffffffffffffffffffffffffffffffffff\n      and\n      dup2\n      mstore\n      0x20\n      add\n      swap2\n      pop\n      pop\n      mload(0x40)\n      dup1\n      swap2\n      sub\n      swap1\n      return\n    tag_5:\n        /* \"Config.sol\":339:346  address */\n      0x0\n        /* \"Config.sol\":358:362  B _b */\n      dup1\n        /* \"Config.sol\":365:372  new B() */\n      tag_7\n      jump\t// in(tag_8)\n    tag_7:\n      mload(0x40)\n      dup1\n      swap2\n      sub\n      swap1\n      0x0\n      create\n      dup1\n      iszero\n      iszero\n      tag_9\n      jumpi\n      0x0\n      dup1\n      revert\n    tag_9:\n        /* \"Config.sol\":358:372  B _b = new B() */\n      swap1\n      pop\n        /* \"Config.sol\":390:392  _b */\n      dup1\n        /* \"Config.sol\":390:406  _b.callContractC */\n      0xffffffffffffffffffffffffffffffffffffffff\n      and\n      0x35d7a260\n        /* \"Config.sol\":390:408  _b.callContractC() */\n      mstore(add(0x20, mload(0x40)), 0x0)\n      mload(0x40)\n      dup2\n      0xffffffff\n      and\n      0x100000000000000000000000000000000000000000000000000000000\n      mul\n      dup2\n      mstore\n      0x4\n      add\n      0x20\n      mload(0x40)\n      dup1\n      dup4\n      sub\n      dup2\n      0x0\n      dup8\n      dup1\n      extcodesize\n      iszero\n      iszero\n      tag_10\n      jumpi\n      0x0\n      dup1\n      revert\n    tag_10:\n      sub(gas, 0x2c6)\n      call\n      iszero\n      iszero\n      tag_11\n      jumpi\n      0x0\n      dup1\n      revert\n    tag_11:\n      pop\n      pop\n      pop\n      mload(0x40)\n      dup1\n      mload\n      swap1\n      pop\n        /* \"Config.sol\":383:408  return _b.callContractC() */\n      swap2\n      pop\n        /* \"Config.sol\":299:416  function callContractB() public returns(address){\r... */\n      pop\n      swap1\n      jump\t// out\n        /* \"Config.sol\":281:419  contract A {\r... */\n    tag_8:\n      mload(0x40)\n      dataSize(sub_0)\n      dup1\n      dataOffset(sub_0)\n      dup4\n      codecopy\n      add\n      swap1\n      jump\t// out\n    stop\n\n    sub_0: assembly {\n            /* \"Config.sol\":139:275  contract B {\r... */\n          mstore(0x40, 0x60)\n          jumpi(tag_1, iszero(callvalue))\n          0x0\n          dup1\n          revert\n        tag_1:\n          dataSize(sub_0)\n          dup1\n          dataOffset(sub_0)\n          0x0\n          codecopy\n          0x0\n          return\n        stop\n\n        sub_0: assembly {\n                /* \"Config.sol\":139:275  contract B {\r... */\n              mstore(0x40, 0x60)\n              jumpi(tag_1, lt(calldatasize, 0x4))\n              calldataload(0x0)\n              0x100000000000000000000000000000000000000000000000000000000\n              swap1\n              div\n              0xffffffff\n              and\n              dup1\n              0x35d7a260\n              eq\n              tag_2\n              jumpi\n            tag_1:\n              0x0\n              dup1\n              revert\n                /* \"Config.sol\":157:272  function callContractC() public returns(address){\r... */\n            tag_2:\n              jumpi(tag_3, iszero(callvalue))\n              0x0\n              dup1\n              revert\n            tag_3:\n              tag_4\n              jump(tag_5)\n            tag_4:\n              mload(0x40)\n              dup1\n              dup3\n              0xffffffffffffffffffffffffffffffffffffffff\n              and\n              0xffffffffffffffffffffffffffffffffffffffff\n              and\n              dup2\n              mstore\n              0x20\n              add\n              swap2\n              pop\n              pop\n              mload(0x40)\n              dup1\n              swap2\n              sub\n              swap1\n              return\n            tag_5:\n                /* \"Config.sol\":197:204  address */\n              0x0\n                /* \"Config.sol\":216:220  C _c */\n              dup1\n                /* \"Config.sol\":223:230  new C() */\n              tag_7\n              jump\t// in(tag_8)\n            tag_7:\n              mload(0x40)\n              dup1\n              swap2\n              sub\n              swap1\n              0x0\n              create\n              dup1\n              iszero\n              iszero\n              tag_9\n              jumpi\n              0x0\n              dup1\n              revert\n            tag_9:\n                /* \"Config.sol\":216:230  C _c = new C() */\n              swap1\n              pop\n                /* \"Config.sol\":248:250  _c */\n              dup1\n                /* \"Config.sol\":248:262  _c.sendAddress */\n              0xffffffffffffffffffffffffffffffffffffffff\n              and\n              0x328e94a5\n                /* \"Config.sol\":248:264  _c.sendAddress() */\n              mstore(add(0x20, mload(0x40)), 0x0)\n              mload(0x40)\n              dup2\n              0xffffffff\n              and\n              0x100000000000000000000000000000000000000000000000000000000\n              mul\n              dup2\n              mstore\n              0x4\n              add\n              0x20\n              mload(0x40)\n              dup1\n              dup4\n              sub\n              dup2\n              0x0\n              dup8\n              dup1\n              extcodesize\n              iszero\n              iszero\n              tag_10\n              jumpi\n              0x0\n              dup1\n              revert\n            tag_10:\n              sub(gas, 0x2c6)\n              call\n              iszero\n              iszero\n              tag_11\n              jumpi\n              0x0\n              dup1\n              revert\n            tag_11:\n              pop\n              pop\n              pop\n              mload(0x40)\n              dup1\n              mload\n              swap1\n              pop\n                /* \"Config.sol\":241:264  return _c.sendAddress() */\n              swap2\n              pop\n                /* \"Config.sol\":157:272  function callContractC() public returns(address){\r... */\n              pop\n              swap1\n              jump\t// out\n                /* \"Config.sol\":139:275  contract B {\r... */\n            tag_8:\n              mload(0x40)\n              dataSize(sub_0)\n              dup1\n              dataOffset(sub_0)\n              dup4\n              codecopy\n              add\n              swap1\n              jump\t// out\n            stop\n\n            sub_0: assembly {\n                    /* \"Config.sol\":28:135  contract C {\r... */\n                  mstore(0x40, 0x60)\n                  jumpi(tag_1, iszero(callvalue))\n                  0x0\n                  dup1\n                  revert\n                tag_1:\n                  dataSize(sub_0)\n                  dup1\n                  dataOffset(sub_0)\n                  0x0\n                  codecopy\n                  0x0\n                  return\n                stop\n\n                sub_0: assembly {\n                        /* \"Config.sol\":28:135  contract C {\r... */\n                      mstore(0x40, 0x60)\n                      jumpi(tag_1, lt(calldatasize, 0x4))\n                      calldataload(0x0)\n                      0x100000000000000000000000000000000000000000000000000000000\n                      swap1\n                      div\n                      0xffffffff\n                      and\n                      dup1\n                      0x328e94a5\n                      eq\n                      tag_2\n                      jumpi\n                    tag_1:\n                      0x0\n                      dup1\n                      revert\n                        /* \"Config.sol\":46:132  function sendAddress() public view returns(address){\r... */\n                    tag_2:\n                      jumpi(tag_3, iszero(callvalue))\n                      0x0\n                      dup1\n                      revert\n                    tag_3:\n                      tag_4\n                      jump(tag_5)\n                    tag_4:\n                      mload(0x40)\n                      dup1\n                      dup3\n                      0xffffffffffffffffffffffffffffffffffffffff\n                      and\n                      0xffffffffffffffffffffffffffffffffffffffff\n                      and\n                      dup2\n                      mstore\n                      0x20\n                      add\n                      swap2\n                      pop\n                      pop\n                      mload(0x40)\n                      dup1\n                      swap2\n                      sub\n                      swap1\n                      return\n                    tag_5:\n                        /* \"Config.sol\":89:96  address */\n                      0x0\n                        /* \"Config.sol\":115:124  tx.origin */\n                      origin\n                        /* \"Config.sol\":108:124  return tx.origin */\n                      swap1\n                      pop\n                        /* \"Config.sol\":46:132  function sendAddress() public view returns(address){\r... */\n                      swap1\n                      jump\t// out\n\n                    auxdata: 0xa165627a7a7230582099dfc3e7ca57ccb8e41cc03951b13eeb4faf7f4710a694d63cb11a6ce500448b0029\n                }\n            }\n\n            auxdata: 0xa165627a7a72305820f5bd156d2077e6843b340844fc43586e1b721e22f6a60d4c62d4124d6527f8e40029\n        }\n    }\n\n    auxdata: 0xa165627a7a72305820945a38c48074b9eefc991d1d3b21111f409688b2943d61d1e97a0a2d641d48360029\n}\n",
				"bytecode": {
					"linkReferences": {},
					"object": "6060604052341561000f57600080fd5b6104128061001e6000396000f300606060405260043610610041576000357c0100000000000000000000000000000000000000000000000000000000900463ffffffff1680636428f3dc14610046575b600080fd5b341561005157600080fd5b61005961009b565b604051808273ffffffffffffffffffffffffffffffffffffffff1673ffffffffffffffffffffffffffffffffffffffff16815260200191505060405180910390f35b6000806100a661014b565b604051809103906000f08015156100bc57600080fd5b90508073ffffffffffffffffffffffffffffffffffffffff166335d7a2606000604051602001526040518163ffffffff167c0100000000000000000000000000000000000000000000000000000000028152600401602060405180830381600087803b151561012a57600080fd5b6102c65a03f1151561013b57600080fd5b5050506040518051905091505090565b60405161028b8061015c8339019056006060604052341561000f57600080fd5b61026d8061001e6000396000f300606060405260043610610041576000357c0100000000000000000000000000000000000000000000000000000000900463ffffffff16806335d7a26014610046575b600080fd5b341561005157600080fd5b61005961009b565b604051808273ffffffffffffffffffffffffffffffffffffffff1673ffffffffffffffffffffffffffffffffffffffff16815260200191505060405180910390f35b6000806100a661014b565b604051809103906000f08015156100bc57600080fd5b90508073ffffffffffffffffffffffffffffffffffffffff1663328e94a56000604051602001526040518163ffffffff167c0100000000000000000000000000000000000000000000000000000000028152600401602060405180830381600087803b151561012a57600080fd5b6102c65a03f1151561013b57600080fd5b5050506040518051905091505090565b60405160e78061015b8339019056006060604052341561000f57600080fd5b60ca8061001d6000396000f300606060405260043610603f576000357c0100000000000000000000000000000000000000000000000000000000900463ffffffff168063328e94a5146044575b600080fd5b3415604e57600080fd5b60546096565b604051808273ffffffffffffffffffffffffffffffffffffffff1673ffffffffffffffffffffffffffffffffffffffff16815260200191505060405180910390f35b6000329050905600a165627a7a7230582099dfc3e7ca57ccb8e41cc03951b13eeb4faf7f4710a694d63cb11a6ce500448b0029a165627a7a72305820f5bd156d2077e6843b340844fc43586e1b721e22f6a60d4c62d4124d6527f8e40029a165627a7a72305820945a38c48074b9eefc991d1d3b21111f409688b2943d61d1e97a0a2d641d48360029",
					"opcodes": "PUSH1 0x60 PUSH1 0x40 MSTORE CALLVALUE ISZERO PUSH2 0xF JUMPI PUSH1 0x0 DUP1 REVERT JUMPDEST PUSH2 0x412 DUP1 PUSH2 0x1E PUSH1 0x0 CODECOPY PUSH1 0x0 RETURN STOP PUSH1 0x60 PUSH1 0x40 MSTORE PUSH1 0x4 CALLDATASIZE LT PUSH2 0x41 JUMPI PUSH1 0x0 CALLDATALOAD PUSH29 0x100000000000000000000000000000000000000000000000000000000 SWAP1 DIV PUSH4 0xFFFFFFFF AND DUP1 PUSH4 0x6428F3DC EQ PUSH2 0x46 JUMPI JUMPDEST PUSH1 0x0 DUP1 REVERT JUMPDEST CALLVALUE ISZERO PUSH2 0x51 JUMPI PUSH1 0x0 DUP1 REVERT JUMPDEST PUSH2 0x59 PUSH2 0x9B JUMP JUMPDEST PUSH1 0x40 MLOAD DUP1 DUP3 PUSH20 0xFFFFFFFFFFFFFFFFFFFFFFFFFFFFFFFFFFFFFFFF AND PUSH20 0xFFFFFFFFFFFFFFFFFFFFFFFFFFFFFFFFFFFFFFFF AND DUP2 MSTORE PUSH1 0x20 ADD SWAP2 POP POP PUSH1 0x40 MLOAD DUP1 SWAP2 SUB SWAP1 RETURN JUMPDEST PUSH1 0x0 DUP1 PUSH2 0xA6 PUSH2 0x14B JUMP JUMPDEST PUSH1 0x40 MLOAD DUP1 SWAP2 SUB SWAP1 PUSH1 0x0 CREATE DUP1 ISZERO ISZERO PUSH2 0xBC JUMPI PUSH1 0x0 DUP1 REVERT JUMPDEST SWAP1 POP DUP1 PUSH20 0xFFFFFFFFFFFFFFFFFFFFFFFFFFFFFFFFFFFFFFFF AND PUSH4 0x35D7A260 PUSH1 0x0 PUSH1 0x40 MLOAD PUSH1 0x20 ADD MSTORE PUSH1 0x40 MLOAD DUP2 PUSH4 0xFFFFFFFF AND PUSH29 0x100000000000000000000000000000000000000000000000000000000 MUL DUP2 MSTORE PUSH1 0x4 ADD PUSH1 0x20 PUSH1 0x40 MLOAD DUP1 DUP4 SUB DUP2 PUSH1 0x0 DUP8 DUP1 EXTCODESIZE ISZERO ISZERO PUSH2 0x12A JUMPI PUSH1 0x0 DUP1 REVERT JUMPDEST PUSH2 0x2C6 GAS SUB CALL ISZERO ISZERO PUSH2 0x13B JUMPI PUSH1 0x0 DUP1 REVERT JUMPDEST POP POP POP PUSH1 0x40 MLOAD DUP1 MLOAD SWAP1 POP SWAP2 POP POP SWAP1 JUMP JUMPDEST PUSH1 0x40 MLOAD PUSH2 0x28B DUP1 PUSH2 0x15C DUP4 CODECOPY ADD SWAP1 JUMP STOP PUSH1 0x60 PUSH1 0x40 MSTORE CALLVALUE ISZERO PUSH2 0xF JUMPI PUSH1 0x0 DUP1 REVERT JUMPDEST PUSH2 0x26D DUP1 PUSH2 0x1E PUSH1 0x0 CODECOPY PUSH1 0x0 RETURN STOP PUSH1 0x60 PUSH1 0x40 MSTORE PUSH1 0x4 CALLDATASIZE LT PUSH2 0x41 JUMPI PUSH1 0x0 CALLDATALOAD PUSH29 0x100000000000000000000000000000000000000000000000000000000 SWAP1 DIV PUSH4 0xFFFFFFFF AND DUP1 PUSH4 0x35D7A260 EQ PUSH2 0x46 JUMPI JUMPDEST PUSH1 0x0 DUP1 REVERT JUMPDEST CALLVALUE ISZERO PUSH2 0x51 JUMPI PUSH1 0x0 DUP1 REVERT JUMPDEST PUSH2 0x59 PUSH2 0x9B JUMP JUMPDEST PUSH1 0x40 MLOAD DUP1 DUP3 PUSH20 0xFFFFFFFFFFFFFFFFFFFFFFFFFFFFFFFFFFFFFFFF AND PUSH20 0xFFFFFFFFFFFFFFFFFFFFFFFFFFFFFFFFFFFFFFFF AND DUP2 MSTORE PUSH1 0x20 ADD SWAP2 POP POP PUSH1 0x40 MLOAD DUP1 SWAP2 SUB SWAP1 RETURN JUMPDEST PUSH1 0x0 DUP1 PUSH2 0xA6 PUSH2 0x14B JUMP JUMPDEST PUSH1 0x40 MLOAD DUP1 SWAP2 SUB SWAP1 PUSH1 0x0 CREATE DUP1 ISZERO ISZERO PUSH2 0xBC JUMPI PUSH1 0x0 DUP1 REVERT JUMPDEST SWAP1 POP DUP1 PUSH20 0xFFFFFFFFFFFFFFFFFFFFFFFFFFFFFFFFFFFFFFFF AND PUSH4 0x328E94A5 PUSH1 0x0 PUSH1 0x40 MLOAD PUSH1 0x20 ADD MSTORE PUSH1 0x40 MLOAD DUP2 PUSH4 0xFFFFFFFF AND PUSH29 0x100000000000000000000000000000000000000000000000000000000 MUL DUP2 MSTORE PUSH1 0x4 ADD PUSH1 0x20 PUSH1 0x40 MLOAD DUP1 DUP4 SUB DUP2 PUSH1 0x0 DUP8 DUP1 EXTCODESIZE ISZERO ISZERO PUSH2 0x12A JUMPI PUSH1 0x0 DUP1 REVERT JUMPDEST PUSH2 0x2C6 GAS SUB CALL ISZERO ISZERO PUSH2 0x13B JUMPI PUSH1 0x0 DUP1 REVERT JUMPDEST POP POP POP PUSH1 0x40 MLOAD DUP1 MLOAD SWAP1 POP SWAP2 POP POP SWAP1 JUMP JUMPDEST PUSH1 0x40 MLOAD PUSH1 0xE7 DUP1 PUSH2 0x15B DUP4 CODECOPY ADD SWAP1 JUMP STOP PUSH1 0x60 PUSH1 0x40 MSTORE CALLVALUE ISZERO PUSH2 0xF JUMPI PUSH1 0x0 DUP1 REVERT JUMPDEST PUSH1 0xCA DUP1 PUSH2 0x1D PUSH1 0x0 CODECOPY PUSH1 0x0 RETURN STOP PUSH1 0x60 PUSH1 0x40 MSTORE PUSH1 0x4 CALLDATASIZE LT PUSH1 0x3F JUMPI PUSH1 0x0 CALLDATALOAD PUSH29 0x100000000000000000000000000000000000000000000000000000000 SWAP1 DIV PUSH4 0xFFFFFFFF AND DUP1 PUSH4 0x328E94A5 EQ PUSH1 0x44 JUMPI JUMPDEST PUSH1 0x0 DUP1 REVERT JUMPDEST CALLVALUE ISZERO PUSH1 0x4E JUMPI PUSH1 0x0 DUP1 REVERT JUMPDEST PUSH1 0x54 PUSH1 0x96 JUMP JUMPDEST PUSH1 0x40 MLOAD DUP1 DUP3 PUSH20 0xFFFFFFFFFFFFFFFFFFFFFFFFFFFFFFFFFFFFFFFF AND PUSH20 0xFFFFFFFFFFFFFFFFFFFFFFFFFFFFFFFFFFFFFFFF AND DUP2 MSTORE PUSH1 0x20 ADD SWAP2 POP POP PUSH1 0x40 MLOAD DUP1 SWAP2 SUB SWAP1 RETURN JUMPDEST PUSH1 0x0 ORIGIN SWAP1 POP SWAP1 JUMP STOP LOG1 PUSH6 0x627A7A723058 KECCAK256 SWAP10 0xdf 0xc3 0xe7 0xca JUMPI 0xcc 0xb8 0xe4 0x1c 0xc0 CODECOPY MLOAD 0xb1 RETURNDATACOPY 0xeb 0x4f 0xaf PUSH32 0x4710A694D63CB11A6CE500448B0029A165627A7A72305820F5BD156D2077E684 EXTCODESIZE CALLVALUE ADDMOD DIFFICULTY 0xfc NUMBER PC PUSH15 0x1B721E22F6A60D4C62D4124D6527F8 0xe4 STOP 0x29 LOG1 PUSH6 0x627A7A723058 KECCAK256 SWAP5 GAS CODESIZE 0xc4 DUP1 PUSH21 0xB9EEFC991D1D3B21111F409688B2943D61D1E97A0A 0x2d PUSH5 0x1D48360029 "
				},
				"gasEstimates": {
					"creation": {
						"codeDepositCost": "208400",
						"executionCost": "246",
						"totalCost": "208646"
					},
					"external": {
						"callContractB()": "infinite"
					}
				},
				"methodIdentifiers": {
					"callContractB()": "6428f3dc"
				}
			},
			"userdoc": {
				"methods": {}
			}
		}
	}
}